:0200000460009A
:100000004643464200000156000000000101020084
:1000100000000000000000000000000000000000E0
:1000200000000000000000000000000000000000D0
:1000300000000000000000000000000000000000C0
:1000400000000000010403000000000000000000A8
:100050000000200000000000000000000000000080
:100060000000000000000000000000000000000090
:100070000000000000000000000000000000000080
:10008000EB04180A063204260000000000000000FD
:10009000050404240000000000000000000000002F
:1000A0000000000000000000000000000000000050
:1000B0000604000000000000000000000000000036
:1000C0000000000000000000000000000000000030
:1000D00020041808000000000000000000000000DC
:1000E0000000000000000000000000000000000010
:1000F0000000000000000000000000000000000000
:10010000D8041808000000000000000000000000F3
:100110000204180804200000000000000000000095
:1001200000000000000000000000000000000000CF
:10013000600400000000000000000000000000005B
:1001400000000000000000000000000000000000AF
:10015000000000000000000000000000000000009F
:10016000000000000000000000000000000000008F
:10017000000000000000000000000000000000007F
:10018000000000000000000000000000000000006F
:10019000000000000000000000000000000000005F
:1001A000000000000000000000000000000000004F
:1001B000000000000000000000000000000000003F
:1001C000000100000010000001000000000000001D
:1001D000000001000000000000000000000000001E
:1001E000000000000000000000000000000000000F
:1001F00000000000000000000000000000000000FF
:10020000FFFFFFFFFFFFFFFFFFFFFFFFFFFFFFFFFE
:10021000FFFFFFFFFFFFFFFFFFFFFFFFFFFFFFFFEE
:10100000D10020400020006000000000000000002F
:1010100020100060001000600000000000000000D0
:1010200000000060B44B000000000000FFFFFFFF65
:10103000FFFFFFFFFFFFFFFFFFFFFFFFFFFFFFFFC0
:10104000FFFFFFFFFFFFFFFFFFFFFFFFFFFFFFFFB0
:10105000FFFFFFFFFFFFFFFFFFFFFFFFFFFFFFFFA0
:10106000FFFFFFFFFFFFFFFFFFFFFFFFFFFFFFFF90
:102000000000012009200060074B084A5A6407229B
:102010001A644FF42A029A63054A0649064800F0FA
:102020000DF800F019F800BF00C00A40ABAAAAAA38
:10203000C84C00006020006000000000884206D00C
:10204000904205D251F8043B40F8043BF8E7704752
:102050007047FFFFFFFFFFFF5FF800F0F502000091
:1020600018210020F5020000710300009D2D0000E2
:102070000000000000000000000000000000000060
:1020800000000000000000000000000075030000D8
:10209000000000000000000077030000790300004A
:1020A000AD280000B5280000BD280000C5280000AC
:1020B000CD280000D5280000DD280000E52800001C
:1020C000ED280000F5280000FD280000052900008B
:1020D0000D290000152900001D29000025290000F8
:1020E0002D290000352900003D2900004529000068
:1020F0004D290000552900005D29000065290000D8
:102100006D290000752900007D2900008529000047
:102110008D290000952900009D290000A5290000B7
:10212000AD290000B5290000BD290000C529000027
:10213000CD290000D5290000DD290000E529000097
:10214000ED290000F5290000FD290000052A000006
:102150000D2A0000152A00001D2A0000252A000073
:102160002D2A0000352A00003D2A0000452A0000E3
:102170004D2A0000552A00005D2A0000652A000053
:102180006D2A0000752A00007D2A0000852A0000C3
:102190008D2A0000952A00009D2A0000A52A000033
:1021A000AD2A0000B52A0000BD2A0000C52A0000A3
:1021B000CD2A0000D52A0000DD2A0000E52A000013
:1021C000ED2A0000F52A0000FD2A0000052B000082
:1021D0000D2B0000152B00001D2B0000252B0000EF
:1021E0002D2B0000352B00003D2B0000452B00005F
:1021F0004D2B0000552B00005D2B0000652B0000CF
:102200006D2B0000752B00007D2B0000852B00003E
:102210008D2B0000952B00009D2B0000A52B0000AE
:10222000AD2B0000B52B0000BD2B0000C52B00001E
:10223000CD2B0000D52B0000DD2B0000E52B00008E
:10224000ED2B0000F52B0000FD2B0000052C0000FD
:102250000D2C0000152C00001D2C0000252C00006A
:102260002D2C0000352C00003D2C0000452C0000DA
:102270004D2C0000552C00005D2C0000652C00004A
:102280006D2C0000752C00007D2C0000852C0000BA
:102290008D2C0000952C00009D2C0000A52C00002A
:1022A000AD2C0000B52C0000BD2C0000C52C00009A
:1022B000CD2C0000D52C0000DD2C0000E52C00000A
:1022C000ED2C0000F52C0000FD2C0000052D000079
:1022D0000D2D0000152D00001D2D0000252D0000E6
:1022E0002D2D0000352D00003D2D0000452D000056
:1022F0004D2D0000552D00005D2D0000652D0000C6
:102300006D2D0000752D00007D2D0000852D000035
:102310008D2D0000952D0000106C0060B04B00006A
:1023200000000000106C00600000002004000000AD
:10233000106C00600000202000000000B04B000086
:102340000000000004000020140100000000202014
:102350000000000010B572B601F07CF80D4B07E0EC
:1023600003F10C049A685968186800F019F82346BC
:10237000094A9342F4D306E01C46596854F8080B06
:1023800000F01DF82346054A9342F5D362B602F0E9
:10239000A2FEFEE7B8020000DC020000F40200002A
:1023A000002393420AD210B450F8044B41F8044B76
:1023B00004339342F8D35DF8044B70477047002311
:1023C0008B4204D2002240F8042B0433F8E7704714
:1023D000FEE7FEE7FEE7FEE7FEE7FEE780B58EB02C
:1023E00000AFB9607B600346FB731346BB7343F2D7
:1023F00021537B637B687B61BB68BB6100233B77B8
:1024000000237B77FB7BBB770123FB77012387F8D6
:102410002030BB7B87F82C30BB7B012B18D107F118
:1024200014033B631C220021264802F05CFE254B6E
:10243000244A1A61234B1B6907F1240211461846EE
:1024400001F002FA03467B637B6B002B14D010E093
:10245000BB7B022B01D17B6B2FE0BB7B032B01D11C
:102460007B6B2AE0BB7B042B01D17B6B25E07B6B74
:1024700023E0154802F02EF8124B1B691349184649
:1024800001F01CFA03467B637B6B002B02D01048E3
:1024900002F020F80B4B1B690E49184601F03AFA7E
:1024A00003467B637B6B002B02D00B4802F012F8D3
:1024B000044B1B69094A1360002318463837BD4690
:1024C00080BD00BF04000020183700001800002065
:1024D000683700001C000020B837000020000020F2
:1024E00080B485B000AF78600023FB600023FB6000
:1024F00002E0FB680133FB607B68064A02FB03F3E2
:10250000FA689A42F5D900BF1437BD465DF8047BDE
:10251000704700BF40420F0080B582B000AF01237A
:102520003B7100237B710023BB7101F093FF01F02D
:1025300023FC02F027FD01F007F83B1D1A4603219A
:10254000124800F081FB01220321104800F0CEFB6D
:102550000F4B01221A704FF47A70FFF7C1FF0C4B3A
:102560001B78DBB2002B08D000220321074800F0C3
:10257000BDFB074B00221A70EDE70122032103483F
:1025800000F0B4FB024B01221A70E4E700801B400C
:102590001401002080B400AF074BD3F8703203F071
:1025A0001003002B02D1054B1B6800E0044B1846BA
:1025B000BD465DF8047B704700800D40240000207C
:1025C00000366E0180B582B000AF0346FB71FB7927
:1025D00083F00103DBB2002B02D1134801F07AFF34
:1025E000124B4FF08042C3F8582100BF0F4BD3F875
:1025F000703203F48033002BF8D00C4B4FF4803250
:10260000C3F8542100BF094BD3F8503103F4004301
:10261000002BF8D0054B4FF48032C3F8582100BF8F
:102620000837BD4680BD00BF0838000000800D405F
:1026300080B483B000AF0346FB71FB79002B04D15B
:10264000074B1022C3F8742203E0054B1022C3F895
:10265000782200BF0C37BD465DF8047B704700BF91
:1026600000800D4080B400AF064BD3F87032054AAD
:1026700043F00103C2F8703200BFBD465DF8047B31
:10268000704700BF00800D4080B483B000AF786019
:10269000154B1B6823F4E0327B681B799B039BB2CC
:1026A0001343114A43F4803313600F4B1A680F4BE6
:1026B00013407A68126802F07F0213430A4A43F417
:1026C0000053136000BF084B1B68002BFBDA064B5E
:1026D0001B68054A23F48033136000BF0C37BD46E6
:1026E0005DF8047B704700BF00800D4080CFFFFF86
:1026F00080B483B000AF7860224B1B6B23F4E032D0
:102700007B681B7B9B039BB213431E4A43F48033BD
:1027100013631C4B1A6B1C4B13407A68127802F03F
:1027200001021343174A43F4005313637B685B6849
:10273000144A23F0404313657B689B68114A23F0D9
:10274000404313667B685B8AC3F30E027B681B7C85
:10275000DB039BB21A437B68DB891B0409491343E3
:102760000B6400BF074B1B6B002BFBDA054B1B6B8D
:10277000044A23F48033136300BF0C37BD465DF871
:10278000047B704700800D40FECFFFFF80B400AF98
:10279000034B00221A6200BFBD465DF8047B704700
:1027A00000800D4080B400AF044B4FF480521A6794
:1027B00000BFBD465DF8047B704700BF00800D4040
:1027C00080B400AF044B4FF48052C3F8A02000BF88
:1027D000BD465DF8047B704700800D4080B400AFBB
:1027E000044B4FF48052C3F8E02000BFBD465DF8B3
:1027F000047B704700800D4090B58DB000AF7860CD
:10280000B24B07F10C040FCB84E80F007968B04895
:1028100002F023FB034683F00103DBB2002B01D05F
:1028200000237EE17968AA4802F035FBF8627968F6
:10283000A74802F0F9FA0346002B01D0FB6A70E1C9
:102840007B68A44A93427ED07B68A24A934215D803
:102850007B68A14A934268D07B689F4A934203D821
:102860007B680D2B24D058E17B689C4A934200F092
:1028700046817B689A4A934224D04EE17B68994A0C
:10288000934200F004817B68964A934205D87B68A6
:10289000954A934200F0A8803FE17B68934A9342B7
:1028A00000F004817B68924A934200F0258134E174
:1028B000874B1B6803F07F03FA6A02FB03F35B0894
:1028C000FB622DE1FB6A07EE903AB8EE676B804B36
:1028D0001B6D07EE903AB8EE677B26EE075B7C4BEC
:1028E0001B6E07EE903AB8EE676B85EE067B87EDC0
:1028F000087B774B1B6B03F00103002B05D0FB6AB1
:10290000162202FB03F3FB6205E0FA6A13469B0002
:1029100013449B00FB6297ED087BFCEEC77B17EE30
:10292000902AFB6A1344FB62FAE0694B1B6903F0CF
:102930000203002B01D0162200E01422FB6A02FBE6
:1029400003F3FB62ECE0624B1B6F03F07F03FB6160
:10295000FB6A07EE903AB8EE676B5D4BD3F88030B8
:1029600007EE903AB8EE677B26EE075B584BD3F83C
:10297000903007EE903AB8EE676B85EE067B87EDF8
:10298000087BFB6AFA6902FB03F397ED087BFCEE18
:10299000C77B17EE902A1344FB624D4B1B6F03F469
:1029A000C013002B03D0B3F5002F04D007E0FB6A5F
:1029B0009B08FB6203E0FB6A5B08FB6200BF444BC1
:1029C000D3F870214B4B1340B3F5004F06D0494A62
:1029D000934207D1FB6A9B08FB6204E0FB6A5B0839
:1029E000FB6200E000BF9BE0394BD3F8A03003F05E
:1029F0007F03FB61FB6A07EE903AB8EE676B344BDE
:102A0000D3F8B03007EE903AB8EE677B26EE075B5E
:102A10002F4BD3F8C03007EE903AB8EE676B85EED7
:102A2000067B87ED087BFB6AFA6902FB03F397EDEF
:102A3000087BFCEEC77B17EE902A1344FB62244B05
:102A4000D3F8A03003F4C013002B03D0B3F5002F4C
:102A500004D007E0FB6A9B08FB6203E0FB6A5B08AB
:102A6000FB6200BF1A4BD3F8703103F04043B3F15F
:102A7000804F06D0B3F1404F07D1FB6A9B08FB6241
:102A800004E0FB6A5B08FB6200E000BF48E0104B1B
:102A9000D3F8E03003F00303FB61FB699B0007F10F
:102AA0003002134453F8243CFB6239E0084BD3F85E
:102AB000E0309B0803F00303FB61FB699B0007F117
:102AC0003002134453F8243CFB6229E03438000000
:102AD00000800D400D0070000D0010000D00200062
:102AE0000D0030000D00E0000D00A0001400E0001B
:102AF0001500E000008080000C4BFB6210E00C4BE6
:102B00001B6A03F00203002B01D0162200E01422FE
:102B1000FB6A02FB03F3FB6202E00023FB6200BFDF
:102B2000FB6A18463437BD4690BD00BF40787D0132
:102B300000800D4080B485B000AF03460A46FB71AB
:102B40001346BB71FB79FB60124BD3F80021FB6885
:102B5000DB00BF2101FA03F3DB431340BB60FB68DA
:102B6000DB0080229A400B49BB681343C1F8003157
:102B7000BB7903F03F02FB68DB009A400549BB6864
:102B80001343C1F8003100BF1437BD465DF8047B24
:102B9000704700BF00800D4080B586B000AF03468F
:102BA0000A46FB8013467B71B7F906301B0A7B612E
:102BB000FB8803F01F033B617B69072B02D90D489B
:102BC00001F088FC7B699A000B4B1344FB60FB68A7
:102BD0001A6803213B6901FA03F3DB431A40797950
:102BE0003B6901FA03F31A43FB681A6000BF183708
:102BF000BD4680BDD038000068C00F4080B584B0AD
:102C000000AF78600023FB6009E00D4AFB6852F8D2
:102C100023307A689A4206D0FB680133FB60FB6878
:102C2000092BF2D900E000BFFB68092B02D9054847
:102C300001F050FCFB6818461037BD4680BD00BF50
:102C400064390000FC38000080B586B000AFF86041
:102C5000B9607A60F868FFF7D1FF78617B69052B6E
:102C60000DD8214A7B6932F91330B3F1FF3F06D00A
:102C70001D4A7B6932F91330184602F026F9FB68C9
:102C80005A690121BB6801FA03F3DB431A40FB6870
:102C90005A617B681B78002B0AD1FB685A680121B6
:102CA000BB6801FA03F3DB431A40FB685A600FE08C
:102CB0007B685B781A46B968F86800F017F8FB681B
:102CC0005A680121BB6801FA03F31A43FB685A6092
:102CD0007B689B781A46B968F86802F005F900BF6E
:102CE0001837BD4680BD00BF8C39000080B584B068
:102CF00000AFF860B9601346FB71BB681F2B02D9A7
:102D00000E4801F0E7FBFB79002B0AD1FB681A683B
:102D10000121BB6801FA03F3DB431A40FB681A6028
:102D200008E0FB681A680121BB6801FA03F31A4343
:102D3000FB681A6000BF1037BD4680BD3C390000FB
:102D400080B487B000AFF860B9601346FB71BB6810
:102D50003B61FB68DA690121BB6801FA03F3DB43DD
:102D60001A40FB68DA61BB680F2B03D8FB680C3391
:102D70007B6105E0FB6810337B613B69103B3B6185
:102D8000FB79013B042B52D801A252F823F000BF7B
:102D9000450D00005D0D0000810D0000A50D000037
:102DA000BB0D00007B691A683B695B00032101FAD7
:102DB00003F3DB431A407B691A6039E07B691A68C8
:102DC0003B695B00032101FA03F3DB431A403B69D3
:102DD0005B00012101FA03F31A437B691A6027E0C3
:102DE0007B691A683B695B00032101FA03F3DB434B
:102DF0001A403B695B00022101FA03F31A437B6925
:102E00001A6015E07B691A683B695B00032101FACF
:102E100003F31A437B691A600AE0FB68DA6901214F
:102E2000BB6801FA03F31A43FB68DA6100E000BFF4
:102E300000BF1C37BD465DF8047B704780B586B087
:102E400000AF03460A46FB8013467B71B7F9063094
:102E50001B0A7B61FB8803F01F033B617B69072B27
:102E600002D90D4801F036FB7B699A000B4B1344E5
:102E7000FB60FB681A6803213B6901FA03F3DB433B
:102E80001A4079793B6901FA03F31A43FB681A6027
:102E900000BF1837BD4680BD9839000068C00F409C
:102EA00080B584B000AF78600023FB6009E00D4A74
:102EB000FB6852F823307A689A4206D0FB680133E7
:102EC000FB60FB68082BF2D900E000BFFB68082B11
:102ED00002D9054801F0FEFAFB6818461037BD46D6
:102EE00080BD00BF4C400000C439000080B58CB0EC
:102EF00000AFF860B9607A60BB68002B02D19F48D0
:102F000001F0E8FABB681B68002B02D19C4801F075
:102F1000E1FABB681B7A042B02D99A4801F0DAFA6D
:102F2000BB685B7A042B02D9974801F0D3FABB68DF
:102F30001B68BB6100237B6200237B8504233B620B
:102F400044E0BB681B683A6A02FB03F37A68B2FB91
:102F5000F3F33B853B8D002B01D101233B853B8D5A
:102F60003A6A02FB03F37A68B2FBF3F37B61BB6856
:102F70001B687A69D31AFB61BB681A683B8D013301
:102F8000396A01FB03F37968B1FBF3F3D31AFA69E9
:102F90009A420ED9BB681A683B8D0133396A01FB2E
:102FA00003F37968B1FBF3F3D31AFB613B8D013373
:102FB0003B85FA69BB699A4205D8FB69BB613B6AEC
:102FC0007B623B8D7B853B6A01333B623B6A202BF6
:102FD000B7D9BB681B686D4AA2FB03235A09134685
:102FE0005B001344BA699A4202D940F22153F8E0D7
:102FF000F868FFF755FF3861654A3B6932F91330CD
:10300000184601F082FFF86801F08EFFFB681B692B
:10301000FB627B6A032B06D97B6A072B03D8FB6A0A
:1030200043F40033FB62FB6A23F0F853FB627B6AD4
:10303000013B1B0603F0F853FA6A1343FB62FA6A7A
:10304000544B1340FB627B8DC3F30C02FB6A1A43A3
:10305000FB681A61FB681B6923F00052FB681A6168
:10306000FB689A694C4B1340FB62BB681B791A469C
:10307000BB68DB7B1B0203F4E0631A43BB689B7BEA
:103080009B0003F004031343FA6A1343FB62BB681B
:103090005B79012B0DD1BB681B79002B04D0FB6A37
:1030A00023F40063FB620CE0FB6A43F40063FB6201
:1030B00007E0BB681B79002B03D0FB6A43F01003C9
:1030C000FB62FB68FA6A9A61FB681B6923F4005390
:1030D000FB62BB68DB795B0303F40052FB6A1A43B3
:1030E000FB681A61BB685B7A1B04BA68127A1A43E0
:1030F000FB68DA62FB689B6A43F08802FB689A62AD
:10310000FB689B6A43F44042FB689A62234BFB6274
:10311000FB6A43F00043FB62FB6A43F44043FB62FB
:10312000FB685A6ABB685B7B1B0103F01001BB683C
:103130001B7B5B0103F020030B431A43FB685A62BD
:10314000BB689B7A002B05D0FB685B6A43F00802E2
:10315000FB685A62BB68DB7A002B05D0FB685B6AB0
:1031600043F00102FB685A62BB689B79002B17D0C1
:10317000FB6A43F00053FB6216E000BFC03A000058
:10318000F03A0000283B0000903B00001F85EB5107
:103190007040000000E0FFFFE8F8FFFF00001F4064
:1031A000FB6A23F00053FB62FB685A69FB6A1A430F
:1031B000FB685A61FB689B69FB62BB681B7C002B48
:1031C00003D0FB6A43F40023FB62BB685B7C002BEB
:1031D00003D0FB6A43F48023FB62FB68FA6A9A61BE
:1031E000002318463037BD4680BD00BF80B582B091
:1031F00000AF78607B68002B02D11D4801F06AF9AE
:1032000014220021786801F06EFF7B684FF4E132F0
:103210001A607B6800221A717B6800225A717B68F1
:1032200000229A717B680022DA717B6800221A7290
:103230007B6800225A727B6800229A727B680022A7
:10324000DA727B6800225A737B6800221A737B68EB
:1032500000229A737B680022DA737B6800221A745A
:103260007B6800225A7400BF0837BD4680BD00BF8E
:10327000F83B000080B500AF044B1B68044A52685D
:1032800011460448984700BF80BD00BF5000002091
:103290002C0000200040184080B500AF044B1B6894
:1032A000044A926811460448984700BF80BD00BF99
:1032B000500000202C0000200080184080B500AF96
:1032C000044B1B68044AD26811460448984700BF63
:1032D00080BD00BF500000202C00002000C018401E
:1032E00080B500AF044B1B68044A126911460448BC
:1032F000984700BF80BD00BF500000202C00002078
:103300000000194080B500AF044B1B68044A5269A5
:1033100011460448984700BF80BD00BF5000002000
:103320002C0000200040194080B500AF044B1B6802
:10333000044A926911460448984700BF80BD00BF07
:10334000500000202C0000200080194080B500AF04
:10335000044B1B68044AD26911460448984700BFD1
:1033600080BD00BF500000202C00002000C019408C
:1033700080B500AF044B1B68044A126A114604482A
:10338000984700BF80BD00BF500000202C000020E7
:1033900000001A4080B400AFBFF34F8FBFF36F8FB0
:1033A0000B4B0022C3F85022BFF34F8FBFF36F8F38
:1033B000074B5B69064A43F400335361BFF34F8FF9
:1033C000BFF36F8F00BFBD465DF8047B704700BF41
:1033D00000ED00E080B485B000AF1D4B0022C3F8C3
:1033E0008420BFF34F8F1A4BD3F880307B607B680B
:1033F0005B0BC3F30E03FB607B68DB08C3F30903BD
:10340000BB60FB685A0143F6E0731340BA68920749
:103410000F491343C1F86032BB685A1EBA60002BD3
:10342000EFD1FB685A1EFA60002BE5D1BFF34F8F36
:10343000074B5B69064A43F480335361BFF34F8FF8
:10344000BFF36F8F00BF1437BD465DF8047B704734
:1034500000ED00E080B500AF344BD3F88830334A3C
:1034600043F47003C2F88830304B314A9A60314BD4
:103470001B899BB22F4A23F001039BB213812E4B71
:103480001B899BB22C4A23F001039BB21381294B69
:103490001B889BB203F00403002B07D0254B1B882D
:1034A0009BB2244A23F004039BB21380224B1B8857
:1034B0009BB203F00403002B07D01F4B1B889BB269
:1034C0001D4A23F004039BB213801C4B1C4A5A6014
:1034D0001A4B4FF6FF729A60184B1B6823F0A0033B
:1034E000164A43F020031360164B1B6803F00103D8
:1034F000002B05D0134B1B68124A23F00103136005
:103500000A4B5B6903F40033B3F5003F01D0FFF7CA
:1035100041FF064B5B6903F48033B3F5803F01D074
:10352000FFF758FF01F016FD00BF80BD00ED00E081
:103530000000000000800B4000000D4000C00B4068
:1035400020C528D910E000E090B585B000AF784BD9
:103550005B6903F00073002B45D0754B9B6903F446
:103560004053B3F5805F21D0B3F5005F21D0002B2D
:103570002BD1704B1B6903F48033002B0BD06D4BA8
:103580001B699B0B03F00303002B01D16A4B00E086
:103590000023FB601CE0674B1B6903F00203002B58
:1035A00001D0664B00E0664BFB6011E0624BFB60B4
:1035B0000EE0604B1B6B9B0B03F00303002B01D150
:1035C0005D4B00E00023FB6002E00023FB6000BFD6
:1035D000574B5B69DB0E03F007030133FA68B2FB5C
:1035E000F3F3FB6095E0534B1B6803F48033002B2F
:1035F0000BD0504B1B689B0B03F00303002B01D136
:103600004D4B00E00023BB6008E04A4B1B6803F011
:103610007F03494A02FB03F35B08BB60454B1B6B0E
:1036200003F48033002B0BD0424B1B6B9B0B03F03E
:103630000303002B01D1404B00E000237B6009E035
:103640003C4B1B6B03F00103002B01D03B4B00E014
:103650003B4B7B60374B1B6D4FF00004364A02FB3F
:1036600004F1002202FB03F20A443349A3FB0101E7
:10367000531819462F4B1B6E4FF000041A46234671
:1036800001F0FAFE03460C461A467B6813447B6041
:10369000274B9B6903F44023B3F5802F0FD0B3F57C
:1036A000802F02D8002B07D030E0B3F5002F15D0C3
:1036B000B3F5402F20D029E07B68FB6029E01D4B4B
:1036C000D3F800311B0C03F03F037A68B2FBF3F22E
:1036D0001346DB0013445B00FB601AE0154BD3F884
:1036E000003103F03F037A68B2FBF3F21346DB00CC
:1036F00013445B00FB600CE00D4B1B6903F00703F8
:103700000133BA68B2FBF3F3FB6002E00023FB6015
:1037100000BF074B5B699B0A03F007030133FA689C
:10372000B2FBF3F3074A136000BF1437BD4690BDE8
:1037300000C00F4000800D4000366E0100A4781FCD
:1037400000389C1C0000002080B58AB000AF786073
:1037500039607B68002B02D1364800F0BBFE3B6825
:10376000002B02D1344800F0B5FE3B681B7B082BD0
:1037700002D9324800F0AEFE3B681B7B1A46304B44
:1037800053F82230002B02D12E4800F0A3FE07F19F
:103790000C031846FFF72AFD3B685B68FB603B683B
:1037A0001B7A012B02D102233B7408E03B681B7A91
:1037B000022B02D103233B7401E000233B743B68DE
:1037C0005B7A012B02D10123FB7401E00023FB741F
:1037D0003B689B7A002B14BF01230023DBB27B776D
:1037E0003B68DB7A002B14BF01230023DBB23B775D
:1037F0003B681B7B1A46124B53F822003B681A6841
:1038000007F10C031946FFF771FB78627B6A002B06
:1038100004D0786A01F0A5FB034606E07B683B62B2
:103820003B681A7B3B6A1A70002318462837BD464E
:1038300080BD00BFA8400000D84000000841000043
:10384000844000007C41000080B584B000AF786007
:10385000396043F22153FB813B68002B02D11548AC
:1038600000F038FE7B68002B02D1134800F032FED6
:103870007B68BB6010220021B86801F034FC3B6813
:103880001A7ABB681A733B681B7A012B0BD1BB6891
:1038900003F108023B68DB681946104600F06AF83D
:1038A0000346FB8100E000BFFB8918461037BD4688
:1038B00080BD00BF044500004045000080B584B0D5
:1038C00000AF786039607B68002B02D10F4800F0B0
:1038D00001FE3B68002B02D10D4800F0FBFD7B6828
:1038E000FB603B68BB6004220021386801F0FBFBF1
:1038F000FB685B685A1CFB685A60BB68FA681A6010
:10390000002318461037BD4680BD00BFC0450000EB
:103910000046000080B584B000AF786039607B68F5
:10392000002B02D1114800F0D5FD3B68002B02D1DD
:103930000F4800F0CFFD7B68FB603B68BB60FB6815
:103940001B68002B02D043F222530BE0042200211B
:10395000386801F0C8FBFB68BA681A60BB68FA688F
:103960001A60002318461037BD4680BDBC460000D3
:103970000047000080B588B000AF786039603B68D0
:10398000002B02D1194800F0A5FD7B68002B02D165
:10399000174800F09FFD3B68FB617B68BB61FB69DA
:1039A0005B68FB60FB691B7A3B74FB695B7A7B7429
:1039B000FB69DB7ABB74FB691B7BFB74FB691B68CF
:1039C000BB60FB699B7A3B75BB6907F10802114636
:1039D0001846FFF7B9FE0346002B02D043F22153ED
:1039E00000E0002318462037BD4680BD4448000053
:1039F0008848000080B483B000AF78607B68DAB29A
:103A00000C4B13441A687B685B13C3F30C017B688F
:103A10001B1203F01F0301FA03F31A407B681B1209
:103A200003F01F0322FA03F318460C37BD465DF876
:103A3000047B704700C00F4080B483B000AF786053
:103A40007B68DAB20C4B13441A687B685B13C3F3D0
:103A50000C017B681B1203F01F0301FA03F31A40E9
:103A60007B681B1203F01F0322FA03F318460C377E
:103A7000BD465DF8047B704700C00F4080B400AFC6
:103A8000074BD3F8703203F01003002B02D1054B23
:103A90001B6800E0044B1846BD465DF8047B704788
:103AA00000800D402400002000366E0190B583B0E8
:103AB00000AF1348FFF79EFF0346002B10D11148BB
:103AC000FEF79AFE0246104BA3FB02239C080F4808
:103AD000FFF7B2FF03460133B4FBF3F37B600AE068
:103AE000FFF7CCFF04460948FFF7A6FF0346013362
:103AF000B4FBF3F37B607B6818460C37BD4690BD82
:103B0000242600800D001000ABAAAAAA24E007809A
:103B100080B584B000AF786039607B689B0EFB6035
:103B20007B68DAB21F4B13441A687B685B13C3F3DC
:103B30000C017B681B1203F01F0301FA03F3DB4344
:103B400002EA03017B681B1203F01F033A689A40E4
:103B50007B685B13C3F30C007B681B1203F01F032D
:103B600000FA03F31A407B68D8B20E4B03441846A0
:103B700041EA02030360FB68202B02D90A4800F0E7
:103B8000A9FCFB68202B09D000BF064B9A6CFB6890
:103B900022FA03F303F00103002BF6D100BF103724
:103BA000BD4680BD00C00F40884A000080B584B08B
:103BB00000AF786039607B689B0EFB607B68DAB28F
:103BC0001F4B13441A687B685B13C3F30C017B68BB
:103BD0001B1203F01F0301FA03F3DB4302EA0301A4
:103BE0007B681B1203F01F033A689A407B685B13E3
:103BF000C3F30C007B681B1203F01F0300FA03F3EE
:103C00001A407B68D8B20E4B0344184641EA0203BF
:103C10000360FB68202B02D90A4800F05BFCFB68BC
:103C2000202B09D000BF064B9A6CFB6822FA03F3E5
:103C300003F00103002BF6D100BF1037BD4680BD55
:103C400000C00F40C44A000080B586B000AF0346F4
:103C50000A46FB8013467B71B7F906301B0A7B616D
:103C6000FB8803F01F033B617B69072B02D90D48DA
:103C700000F030FC7B699A000B4B1344FB60FB683F
:103C80001A6803213B6901FA03F3DB431A4079798F
:103C90003B6901FA03F31A43FB681A6000BF183747
:103CA000BD4680BD004B000068C00F4080B483B0AB
:103CB00000AF7860044A7B68136000BF0C37BD46D4
:103CC0005DF8047B704700BF2400002080B483B0FF
:103CD00000AF7860044A7B68136000BF0C37BD46B4
:103CE0005DF8047B704700BF2800002080B485B0D9
:103CF00000AFF860B9601346FB71BA680C4B134013
:103D0000BB60FB79002B06D0FB685A68BB681A437E
:103D1000FB685A6006E0FB685A68BB68DB431A40E0
:103D2000FB685A6000BF1437BD465DF8047B7047DE
:103D300000F0FFFF80B485B000AF78600B46FB70E9
:103D40001346BB707B689A680A4B1340FB60FB7894
:103D50009B0603F08062FB681A43BB781B0403F4E4
:103D60007F031A437B689A6000BF1437BD465DF835
:103D7000047B7047FFFF00FB80B500AF4FF40040AD
:103D8000FFF7A4FFDC4BD3F8C032DB4A43F48033A7
:103D9000C2F8C032D84BD3F8C032D74A23F400332C
:103DA000C2F8C032D548FFF781FF0020FEF70AFCB9
:103DB000FEF758FC0120FEF73BFCD14B1B6823F0BB
:103DC000FF03CF4A43F07F0313600121CD48FFF783
:103DD0009FFE0121CC48FFF79BFECC4BDB6823F014
:103DE0001F03CA4A43F01303D36000BFC74B1B68CD
:103DF00003F00043B3F1004FF8D10021C448FFF7AE
:103E0000D5FE4FF4887001F0CEF84FF4847001F0C5
:103E1000CAF840F2162001F0C6F84FF4067001F01F
:103E2000C2F840F20E2001F0BEF80321B948FFF7B6
:103E3000BDFE0121B848FFF7B9FE0021B748FFF7E2
:103E4000B5FE4FF48A7001F0AEF84FF48B7001F0BC
:103E5000AAF8182001F0A7F81A2001F0A4F84FF4EE
:103E6000867001F0A0F80121AD48FFF79FFE40F2F7
:103E7000026001F098F80121AA48FFF797FE00219F
:103E8000A948FFF745FE40F2046001F08CF80121DB
:103E9000A648FFF78BFE0021A548FFF739FE4FF437
:103EA000417001F080F807214FF21400FFF77EFE09
:103EB0000021A048FFF72CFE00219F48FFF728FEB5
:103EC00040F2027001F06FF800219C48FFF76EFE8F
:103ED00001219B48FFF71CFE40F2022001F063F82D
:103EE00001219848FFF762FE00219748FFF710FE76
:103EF0004FF4807001F057F84FF4817001F053F8DF
:103F00004FF4827001F04FF84FF4837001F04BF8DA
:103F100004218E48FFF74AFE02218D48FFF7F8FD85
:103F2000162001F040F802218A48FFF73FFE0221E7
:103F30008948FFF7EDFD40F2125001F034F80321FB
:103F40008648FFF733FE01218548FFF72FFE002149
:103F50008448FFF7DDFD40F2145001F024F80321FE
:103F60008148FFF723FE01218048FFF71FFE002153
:103F70007F48FFF7CDFD40F2165001F014F8032101
:103F80007C48FFF713FE01217B48FFF70FFE00215D
:103F90007A48FFF7BDFD40F2062001F004F84FF427
:103FA000027001F000F840F20A2000F0FCFF00214E
:103FB0007348FFF7FBFD00217248FFF7A9FD0E20B3
:103FC00000F0F1FF122000F0EEFF40F2067000F06A
:103FD000EAFF102000F0E7FF142000F0E4FF4FF4A8
:103FE000E16000F0E0FF01216748FFF7DFFD0221FB
:103FF0006648FFF78DFD4FF4A36000F0D4FF1C204E
:1040000000F0D1FF0C2000F0CEFF4FF48C7000F0D8
:10401000CAFF40F2023000F0C6FF40F2063000F066
:10402000C2FF40F21A5000F0BEFF40F20E6000F0F6
:10403000BAFF00215648FFF7B9FD00215548FFF7A8
:1040400067FD40F20A3000F0AEFF07215248FFF74B
:10405000ADFD06215148FFF7A9FD05215048FFF7A6
:1040600057FD40F20E5000F09EFF01214D48FFF732
:104070009DFD07214C48FFF799FD03214B48FFF7B1
:1040800047FD40F2025000F08EFF01214848FFF743
:104090008DFD07214748FFF789FD03214648FFF7BB
:1040A00037FD4FF4407000F07EFF01214348FFF7D9
:1040B0007DFD07214248FFF779FD03214148FFF7C5
:1040C00027FD00214048FFF723FD4048FEF7DCFABA
:1040D0003F48FEF70DFB1B210020FEF72BFD1021B2
:1040E0000120FEF727FD18210220FEF723FD1021F5
:1040F0000320FEF71FFD6DE000800D4000366E01CD
:1041000000C00F40186C00801439001400000840F3
:1041100014EA00041468008010E0004014FB0080E2
:104120001CE0078024EB00801C30008024F000801D
:104130001C310080142700801426008018FD0080A8
:10414000186800803CEB00803C69008018FA008011
:104150001864008024790080186E008028E60080B2
:1041600028E007801C6A00802CE600802CE0078095
:104170001C6C008028F6008028F007801C6E0080F0
:1041800038F307803832008020E207802068008002
:1041900024E007802426008038EC008018F7008097
:1041A00038EF008030F9008030F6008030740080F5
:1041B00030EC008030E900803067008028E9008022
:1041C00028F90080207300800C2000802C4B000018
:1041D000344B0000FEF7E6FA01227949794800F0F5
:1041E000F1FE784BD3F87031764A23F40043C2F8DD
:1041F0007031744BD3F87031724A23F40003C2F863
:104200007031704B1B6F6F4A43F400531367FEF716
:10421000D7FA6C4BD3F8A0306A4A43F48033C2F823
:10422000A030684BD3F87031664A23F04043C2F89F
:104230007031644BD3F8A030624A43F40053C2F8A3
:10424000A030FEF7CBFA01225F495E4800F0BAFECB
:104250005C4BD3F8E03023F003035A4A43F00103E8
:10426000C2F8E030574BD3F8E030564A43F40053DD
:10427000C2F8E030534BD3F8E030524A23F00C033D
:10428000C2F8E0304F4BD3F8E0304E4A43F480138D
:10429000C2F8E0304B4BD3F8E0304A4A43F4001305
:1042A000C2F8E030FEF772FA01224849454800F0B2
:1042B00089FE444B1B6A434A43F4005313620321B3
:1042C0004348FFF725FC00214248FFF721FC00216D
:1042D0004148FFF71DFC00214048FFF719FC394B0E
:1042E000D3F86031374A23F01F03C2F860313C4BEA
:1042F0001B6E3B4A23F070031366394B1B6E23F091
:104300000F03374A43F001031366354B1B6E344AE3
:1043100023F460031366324B1B6E23F4F813304A08
:1043200043F4901313662E4B1B6E2D4A23F48073B7
:1043300013662B4B1B6E2A4A23F080031366284B0F
:104340001B6E274A23F08073136600220021254844
:1043500000F05FFE00220321224800F05AFE0022F6
:104360000621204800F055FE002208211D4800F0DB
:1043700050FE00220A211B4800F04BFE00220021C3
:104380001848FFF7D7FC00224FF400511548FFF7FB
:10439000ADFC00224FF480411248FFF7A7FC114BFF
:1043A0005B69104A23F0805353610E4B5B690D4AE1
:1043B00023F0005353610C4B0C4A1A6000BF80BDC0
:1043C0000D00700000800D400D00E0000D00200089
:1043D0001872008014390014186C00801C260080AC
:1043E00000C00F4000C00A40000000200046C32368
:1043F00080B586B000AF03460A46FB8013467B714A
:10440000B7F906301B0A7B61FB8803F01F033B6191
:104410007B69072B02D90D4800F05CF87B699A0094
:104420000B4B1344FB60FB681A6803213B6901FADC
:1044300003F3DB431A4079793B6901FA03F31A432A
:10444000FB681A6000BF1837BD4680BD484B0000AE
:1044500068C00F4080B584B002AF40F2024000F067
:104460000EFE154A3B1D1268114619800233120CCC
:104470001A703B1D1A4603211048FEF7E5FB002386
:1044800001930F4B00930023002200210D4800F000
:1044900005FE002301930C4B00930023002205210D
:1044A0000A4800F0FBFD0A4BDB6E094B0022DA667E
:1044B00000BF0837BD4680BD744B000000C01B40E4
:1044C000D0821F40E0801F4038831F4048811F403A
:1044D00000C00A4010B504460E490F4800F006FF20
:1044E0000C49204600F002FF0C49D1F88030013B16
:1044F000002BC1F8803008DB8B6F5A1C8A670A22B8
:104500001A70BDE8104000F0EDBD78310A2000F0CF
:104510000CFEF6E7CC0000207C4B0000540000208D
:104520002DE9F041D56880460E461446EB025769E6
:1045300005D545F01005384601F075F8A061124B1D
:104540002B408BB1A169384601F076F8002806DAD5
:10455000E3684FF0FF3043F08003E36011E025F49F
:10456000003525F01005E56032464146384601F039
:1045700069F820F00043F61AA3691E44A6610028DA
:10458000E6D1BDE8F08100BF10000200F8B5304F61
:104590003C68002851D10020F8BD2368B3F1805F4A
:1045A00039D1D4E9013252B11168B1F1805F06D13D
:1045B000516803330B4463609368A360F1E7AB4237
:1045C00007DB734505DC20464FF0005340F80C3BF9
:1045D000E2E7634511D920464FF0005165605B1B4F
:1045E00040F80C1B00EB8501033BA1604FF08054A9
:1045F00040F82540C1E90132CEE762B9A0EB830063
:1046000000F038F90130C6D04FF0005304F10C002F
:10461000C4E90035C0E72646A468002CBDD10C30A3
:1046200000F028F9431CB6D04FF000538460C0E975
:10463000003556B938600C30AEE7C31C00269D0823
:1046400005F10A0C05F1030EE7E7B060F3E700BFE0
:104650000C01002010B5FFF799FF044628B9172276
:10466000034900F0EFFF00F03DFD204610BD00BF04
:10467000914B00002DE9F843C66804463C4B0D46BB
:10468000904633401BB902273846BDE8F883D0F87E
:104690001490484600F0CAFF07460028F3D1B8F14D
:1046A000010F2CD0B8F1020F2ED0B8F1000FEAD1D3
:1046B000002DE8DBB00404D52368E26A9A4238BFD3
:1046C000E362A169A9420EDC2368E26A934238BF23
:1046D000134622695818801AA84204DB206B01EBAC
:1046E000000CAC4534DC002346F02006A562C4E98A
:1046F000013326F4032626F04006E660C4E7204690
:1047000000F038F80544D3E7484600F08CFFB0F1DC
:10471000000CE26804DA42F080020127E260B3E7AD
:10472000E36A1846A3691946236883422CBFC91857
:10473000091892060B462169A3EB010303D5A26A6F
:104740009342B8BF13466345ACBFED186544AFE76D
:104750006D1AB10744BF281AA060F10726F02006A1
:1047600044BF9B1AEB1A154448BF63602560C0E73D
:1047700003001000C3689A0705D10F4B21224FF0A8
:10478000FF301A60704703F020021B030AD512B1F4
:10479000806A0138704703688269006913441B1AF4
:1047A000581E70470AB1806A7047036882690069C1
:1047B0001344181A704700BF1001002010B5174AA3
:1047C0000020174900F0CEFD4FF480734FF4806253
:1047D0000021124800F02EF8124A1349012000F07F
:1047E000C1FD4FF480734FF4806200210D4800F04A
:1047F00021F80E4B1B68022B0EDD0D4A02200A49E0
:1048000000F0B0FD4FF480734FF48062002108483F
:10481000BDE8104000F00EB810BD00BF54000020ED
:10482000A94B000090000020AB4B0000784B00002B
:10483000CC00002070B5C468A50708D0B2F5007F91
:1048400011D0B2F5806F04D0B2F5807F0BD001207B
:1048500008E000F124010123144301610160C361F8
:10486000C460002070BD5E1E014DAE42F4D9EEE77B
:10487000FEFFFF0070B50B4D2B680BB90A4B2B6088
:10488000C41C2E6824F003043444204600F032F89F
:1048900010B92C60304670BD044B0C224FF0FF362F
:1048A0001A60F7E70801002018010020100100201D
:1048B000F7B5044698B103B0BDE8F04000F0BCBDC8
:1048C00007FB0460013400F0B7FD002818BF4FF06B
:1048D000FF35019BA342F3DC284603B0F0BD034B38
:1048E00005463C27024E1B680193F2E7784B000017
:1048F00054000020044B23B1984234BF0020012013
:1049000070471846704700BF1811002008B5FDF722
:1049100064FD08BD08B5FDF760FD08BD08B5FDF7ED
:104920005CFD08BD08B5FDF758FD08BD08B5FDF7ED
:1049300054FD08BD08B5FDF750FD08BD08B5FDF7ED
:104940004CFD08BD08B5FDF748FD08BD08B5FDF7ED
:1049500044FD08BD08B5FDF740FD08BD08B5FDF7ED
:104960003CFD08BD08B5FDF738FD08BD08B5FDF7ED
:1049700034FD08BD08B5FDF730FD08BD08B5FDF7ED
:104980002CFD08BD08B5FDF728FD08BD08B5FDF7ED
:1049900024FD08BD08B5FDF720FD08BD08B5FDF7ED
:1049A0001CFD08BD08B5FDF718FD08BD08B5FEF7EC
:1049B00061FC08BD08B5FEF76FFC08BD08B5FEF741
:1049C0007DFC08BD08B5FEF78BFC08BD08B5FEF7F9
:1049D00099FC08BD08B5FEF7A7FC08BD08B5FEF7B1
:1049E000B5FC08BD08B5FEF7C3FC08BD08B5FDF76A
:1049F000F4FC08BD08B5FDF7F0FC08BD08B5FDF7EF
:104A0000ECFC08BD08B5FDF7E8FC08BD08B5FDF7EE
:104A1000E4FC08BD08B5FDF7E0FC08BD08B5FDF7EE
:104A2000DCFC08BD08B5FDF7D8FC08BD08B5FDF7EE
:104A3000D4FC08BD08B5FDF7D0FC08BD08B5FDF7EE
:104A4000CCFC08BD08B5FDF7C8FC08BD08B5FDF7EE
:104A5000C4FC08BD08B5FDF7C0FC08BD08B5FDF7EE
:104A6000BCFC08BD08B5FDF7B8FC08BD08B5FDF7EE
:104A7000B4FC08BD08B5FDF7B0FC08BD08B5FDF7EE
:104A8000ACFC08BD08B5FDF7A8FC08BD08B5FDF7EE
:104A9000A4FC08BD08B5FDF7A0FC08BD08B5FDF7EE
:104AA0009CFC08BD08B5FDF798FC08BD08B5FDF7EE
:104AB00094FC08BD08B5FDF790FC08BD08B5FDF7EE
:104AC0008CFC08BD08B5FDF788FC08BD08B5FDF7EE
:104AD00084FC08BD08B5FDF780FC08BD08B5FDF7EE
:104AE0007CFC08BD08B5FDF778FC08BD08B5FDF7EE
:104AF00074FC08BD08B5FDF770FC08BD08B5FDF7EE
:104B00006CFC08BD08B5FDF768FC08BD08B5FDF7ED
:104B100064FC08BD08B5FDF760FC08BD08B5FDF7ED
:104B20005CFC08BD08B5FDF758FC08BD08B5FDF7ED
:104B300054FC08BD08B5FDF750FC08BD08B5FDF7ED
:104B40004CFC08BD08B5FDF748FC08BD08B5FDF7ED
:104B500044FC08BD08B5FDF740FC08BD08B5FDF7ED
:104B60003CFC08BD08B5FDF738FC08BD08B5FDF7ED
:104B700034FC08BD08B5FDF730FC08BD08B5FDF7ED
:104B80002CFC08BD08B5FDF728FC08BD08B5FDF7ED
:104B900024FC08BD08B5FDF720FC08BD08B5FDF7ED
:104BA0001CFC08BD08B5FDF718FC08BD08B5FDF7ED
:104BB00014FC08BD08B5FDF710FC08BD08B5FDF7ED
:104BC0000CFC08BD08B5FDF708FC08BD08B5FDF7ED
:104BD00004FC08BD08B5FDF700FC08BD08B5FDF7ED
:104BE000FCFB08BD08B5FDF7F8FB08BD08B5FDF7EF
:104BF000F4FB08BD08B5FDF7F0FB08BD08B5FDF7EF
:104C0000ECFB08BD08B5FDF7E8FB08BD08B5FDF7EE
:104C1000E4FB08BD08B5FDF7E0FB08BD08B5FDF7EE
:104C2000DCFB08BD08B5FDF7D8FB08BD08B5FDF7EE
:104C3000D4FB08BD08B5FDF7D0FB08BD08B5FDF7EE
:104C4000CCFB08BD08B5FDF7C8FB08BD08B5FDF7EE
:104C5000C4FB08BD08B5FDF7C0FB08BD08B5FDF7EE
:104C6000BCFB08BD08B5FDF7B8FB08BD08B5FDF7EE
:104C7000B4FB08BD08B5FDF7B0FB08BD08B5FDF7EE
:104C8000ACFB08BD08B5FDF7A8FB08BD08B5FDF7EE
:104C9000A4FB08BD08B5FDF7A0FB08BD08B5FDF7EE
:104CA0009CFB08BD08B5FDF798FB08BD08B5FDF7EE
:104CB00094FB08BD08B5FDF790FB08BD08B5FDF7EE
:104CC0008CFB08BD08B5FDF788FB08BD08B5FDF7EE
:104CD00084FB08BD08B5FDF780FB08BD08B5FDF7EE
:104CE0007CFB08BD08B5FDF778FB08BD08B5FDF7EE
:104CF00074FB08BD08B5FDF770FB08BD08B5FDF7EE
:104D00006CFB08BD08B5FDF768FB08BD08B5FDF7ED
:104D100064FB08BD08B5FDF760FB08BD08B5FDF7ED
:104D20005CFB08BD08B5FDF758FB08BD08B5FDF7ED
:104D300054FB08BD08B5FDF750FB08BD08B5FDF7ED
:104D40004CFB08BD08B5FDF748FB08BD08B5FDF7ED
:104D500044FB08BD08B5FDF740FB08BD08B5FDF7ED
:104D60003CFB08BD08B5FDF738FB08BD08B5FDF7ED
:104D700034FB08BD08B5FDF730FB08BD08B5FDF7ED
:104D80002CFB08BD08B5FDF728FB08BD08B5FDF7ED
:104D900024FB08BD08B5FDF720FB08BD08B5FDF7ED
:104DA0001CFB08BD08B5FDF718FB08BD08B5FDF7ED
:104DB00014FB08BD08B5FDF710FB08BD08B5FDF7ED
:104DC0000CFB08BD08B5FDF708FB08BD08B5FDF7ED
:104DD00004FB08BD08B5FDF700FB08BD08B5FDF7ED
:104DE000FCFA08BD08B5FDF7F8FA08BD08B5FDF7EF
:104DF000F4FA08BD08B5FDF7F0FA08BD04207146C5
:104E0000084202D0EFF3098001E0EFF308808169E6
:104E10000A884BF6AB639A4200D0FEE7023181610B
:104E200020210160704700BF80B483B000AF78607C
:104E300039603B681B0CC3F30B027B6813441B688F
:104E400003F48033002B14BF01230023DBB2184688
:104E50000C37BD465DF8047B704780B483B000AF6B
:104E6000786039603B681B0CC3F30B027B6813440A
:104E70001A683B6803F01F0322FA03F303F00103EF
:104E8000002B14BF01230023DBB218460C37BD46AC
:104E90005DF8047B704780B582B000AF7860396000
:104EA0003B681B0CC3F30B027B6813441B689B0B12
:104EB00003F00303002B03D1FDF76CFB034600E076
:104EC000002318460837BD4680BD80B582B000AFCC
:104ED0000346FB80B7F9063003211846FDF75CFE58
:104EE00000BF0837BD4680BD80B584B000AFF86014
:104EF000B9601346FB71FB791A46B968F868FDF78B
:104F00001FFF00BF1037BD4680BD80B582B000AF27
:104F10000346FB80B7F9063003211846FDF78EFFE4
:104F200000BF0837BD4680BD80B483B000AF786055
:104F30007B689B6843F002027B689A607B689B6891
:104F400023F002027B689A6000BF0C37BD465DF813
:104F5000047B704780B400AF00BFBD465DF8047BA2
:104F6000704780B483B000AF78607B68002B01D1BC
:104F7000002301E042F6AF7318460C37BD465DF8DA
:104F8000047B704780B582B000AFFEF78FFD78607C
:104F90007B6801224FF4E1310120FDF71FFA00BFC9
:104FA0000837BD4680BD80B582B000AF0346FB80A8
:104FB000B7F9063000211846FEF746FE00BF083755
:104FC000BD4680BD80B485B000AFF860B9601346BF
:104FD000FB71FB79002B0BD0BB681B0CC3F30B02DE
:104FE000FB68134404331A464FF4803313600AE01D
:104FF000BB681B0CC3F30B02FB68134408331A464F
:105000004FF48033136000BF1437BD465DF8047B56
:10501000704780B485B000AF78600B46FB701346D4
:10502000BB70FB78032B12D97B685A68FB7803218D
:1050300001FA03F3DB431340FB60BB7803F0030288
:10504000FB789A40FB681A437B685A6011E07B68E2
:105050005A68FB78072101FA03F3DB431340FB6036
:10506000BB7803F00702FB789A40FB681A437B6821
:105070005A6000BF1437BD465DF8047B704780B5A9
:1050800082B000AF0346FB80B7F906300321184613
:10509000FFF7AEF900BF0837BD4680BD80B485B0CC
:1050A00000AFF860B9607A603B60BB6803F00F0145
:1050B000FB691B0103F01002FB680A431A607B685E
:1050C000002B02D07B683A681A6000BF1437BD46D7
:1050D0005DF8047B704708B5FFF770FBBDE808403A
:1050E000FDF71ABAFEE700F082BAC368826923F0BE
:1050F000200310B5C3600446836A9A420ED000F0C4
:10510000B4F8E36823F4405323F0100343F0100392
:10511000E360A36AA3612369E3622360E36823F485
:10512000804323F04003E36010BDCB6823F40022EA
:1051300070B50C46CA609906054602D52046FFF7B1
:10514000D4FFD4E902365A1C10DAB0050ED4C3F1EC
:10515000FF2346F4903603F57F03E660FE33A36039
:1051600023685A1C22601D70E8B270BD41F28A02A9
:105170003240022A07D0002346F08006A360E66092
:105180004FF0FF30F1E74AF210033340B3F5004F20
:105190000AD100212046FFF76DFAE368990602D58F
:1051A0002046FFF7A2FFE66846F4903316F4706FCE
:1051B000E3600ED1606900F039FA00B372051ED5C4
:1051C00004F12403236123600123E36146F4923355
:1051D000E36013F4106F2168266926D0E36A9942D0
:1051E0002CBFC6EB0101C6EB0301B9B9731CE36226
:1051F0002360E3695A1E2363A2603570B4E74FF45D
:105200008070FFF727FA4FF48073E268E36146F499
:10521000943320611A432060E260DAE72246304688
:10522000FFF77EF90028E1D0AAE74A1CEDB2226020
:105230000D70E26A216891422CBFC6EB0101C6EBFA
:105240000201E2695B05226303D40A2D01D08A4280
:1052500009DC0023E66226602246A3603046FFF7A1
:105260005FF900288CD128467FE738B501680446ED
:105270000569C36AC06820F40022E26000F082027F
:10528000022A02D04FF0FF3038BD10F48030FBD03E
:10529000994238BF19468D4208D1E3680020E56283
:1052A00023F480332560A060E360EDE72246491BCC
:1052B0002846FFF735F90028EFD0E3E7A8B14FF013
:1052C000805340F80C3C50F8042C72B11368B3F1D1
:1052D000805F0AD150F8083C516803330B4440F812
:1052E000083C936840F8043CEDE7704738B5054644
:1052F0000C4615F8010B70B1A368013B002BA360AD
:1053000004DB23685A1C22601870F2E72146FFF77D
:105310000CFF431CEDD138BD421C10B58307044679
:1053200016D1234654F8041BA1F1013020EA0100F4
:1053300010F0803FF5D011F0FF0F11D011F47F4F26
:105340000CD011F47F0F14BF23460333981A04E0E6
:1053500010F8013B002BE1D1801A10BD0233F5E7B4
:105360000133F3E770B50D4606461046144600F0CB
:105370002DF82B78722B17D0772B18D0612B23D1D7
:10538000082348F2020215F8011F2B2912D06229C6
:1053900015D01B07E260666104D502220021204679
:1053A000FFF768F9204670BD00230122EBE70423D4
:1053B0000222E8E742F0030243F00203E3E742F08F
:1053C000040243F00103DEE70024EBE7F0B5C46814
:1053D00089B00546A10722D0220718D4D0E9046776
:1053E000FFF766FA384600F01BF9230502D5304670
:1053F000FFF764FFA40DA40514F1A54F07D12022E7
:10540000296A684600F01BF9684600F00BF83C2258
:1054100000212846FFF767FE002009B0F0BD4FF0DD
:10542000FF30FAE710B50446FFF776FF0146204645
:10543000BDE8104000F0FDB8C36870B513F0030676
:10544000044611D09B0611D5856AFFF74EFEE3682E
:10545000204623F44053E360FFF707FF002206468F
:1054600029462046FFF706F9304670BD8369056876
:105470001D440369ED1AEAE75FF0000C30B51C002B
:1054800022D112006FD0914206D305460846002172
:1054900000F06FF80446284600F06BF80A462146F3
:1054A000BDE830401CF0404F08BF704703D549426B
:1054B000404261F100015FEA8C0C38BF70475B42EB
:1054C000524263F10003704742D41C0C04BF1B041A
:1054D0000CF1100C13F07F4F04BF1B020CF1080CF1
:1054E00013F0704F04BF1B010CF1040C13F0404F7C
:1054F00004BF0CF1020C5FEA83035CBF0CF1010CEA
:105500005B00CCF1200E22FA0EF4234302FA0CF2D7
:1055100000FA0CF520FA0EF001FA0CF4204321FAFF
:105520000EF114461A4600F024F8A4FB0023AA1A30
:1055300071EB03033CBF1B190138CCF1200E22FA9A
:105540000CF203FA0EF4224323FA0CF30021A7E72E
:10555000821A71EB03033CBF02460B464FF0000179
:1055600041F100009CE700200021BDE8304000F040
:105570003DB80423B1EB122F09D2090241EA1061B0
:105580000002013B08BF7047B1EB122FF5D30018A2
:10559000494134BF9142891A4041494134BF914247
:1055A000891A4041494134BF9142891A40414941D9
:1055B00034BF9142891A4041494134BF9142891A0E
:1055C0004041494134BF9142891A4041494134BF69
:1055D0009142891A4041494134BF9142891A404160
:1055E000A3F1010313F00F0FD2D1704770470346A8
:1055F00013F0030F0ED101F0FF0141EA012141EA4E
:105600000141043A24BF43F8041BB2F10402F9D269
:1056100002F10402013A24BF03F8011BFAE77047C4
:105620004FF0FF3070474FF0FF3070474FF0FF30C2
:1056300070474FF0FF3070474FF0FF3070474FF02A
:10564000FF307047104670472E2E2F7574696C69B5
:10565000746965732F66736C5F64656275675F63F9
:105660006F6E736F6C652E633A333932203A204E79
:10567000554C4C20213D2063680000002E2E2F75D4
:1056800074696C69746965732F66736C5F646562B5
:1056900075675F636F6E736F6C652E633A33393372
:1056A000203A203020213D2073697A6500000000F7
:1056B0002E2E2F7574696C69746965732F66736C0F
:1056C0005F64656275675F636F6E736F6C652E6391
:1056D0003A343635203A204E554C4C20213D20633B
:1056E000680000002E2E2F7574696C6974696573EB
:1056F0002F66736C5F64656275675F636F6E736F4F
:105700006C652E633A343636203A203020213D2015
:1057100073697A65000000002E2E2F7574696C691C
:10572000746965732F66736C5F64656275675F6328
:105730006F6E736F6C652E633A353237203A206294
:10574000756620213D204E554C4C00002E2E2F75A5
:1057500074696C69746965732F66736C5F646562E4
:1057600075675F636F6E736F6C652E633A353832A1
:10577000203A2063680000002E2E2F7574696C6932
:10578000746965732F66736C5F64656275675F63C8
:105790006F6E736F6C652E633A373136203A206B2B
:1057A0005374617475735F53657269616C4D616E9A
:1057B000616765725F53756363657373203D3D2058
:1057C00073746174757300002E2E2F7574696C6983
:1057D000746965732F66736C5F64656275675F6378
:1057E0006F6E736F6C652E633A373236203A206BDA
:1057F0005374617475735F53657269616C4D616E4A
:10580000616765725F53756363657373203D3D2007
:1058100073746174757300002E2E2F7574696C6932
:10582000746965732F66736C5F64656275675F6327
:105830006F6E736F6C652E633A373337203A206B87
:105840005374617475735F53657269616C4D616EF9
:10585000616765725F53756363657373203D3D20B7
:1058600073746174757300FF2E2E2F6472697665F0
:1058700072732F66736C5F636C6F636B2E633A3168
:105880003534203A20216279706173735874616CE9
:105890004F73630040787D0180F0FA0200E1F50566
:1058A000405973072E2E2F647269766572732F66C6
:1058B000736C5F636C6F636B2E633A3132343020EC
:1058C0003A20305520213D2064656C61795F757305
:1058D000000000002E2E2F647269766572732F66A9
:1058E000736C5F636C6F636B2E633A3132353120BA
:1058F0003A204457545F4354524C5F4E4F435943F0
:10590000434E545F4D736B20213D20284457542D46
:105910003E4354524C2026204457545F4354524C2B
:105920005F4E4F435943434E545F4D736B2900FF05
:105930002E2E2F647269766572732F66736C5F63A7
:105940006C6F636B2E683A31303631203A20696EC5
:10595000646578203C3D2037000000002E2E2F6427
:105960007269766572732F66736C5F6770696F2EEC
:10597000633A3537203A20696E7374616E6365202F
:105980003C2041525241595F53495A4528735F6741
:1059900070696F4261736573290000002E2E2F64B9
:1059A0007269766572732F66736C5F6770696F2EAC
:1059B000633A313133203A2070696E203C20333213
:1059C00000FFFFFF0000000000801B4000C01B40E4
:1059D00000001C4000401C4000000C400000004241
:1059E000004000420080004200C00042FFFF1A0158
:1059F0001E001A020C031E012E2E2F64726976659A
:105A000072732F66736C5F636C6F636B2E683A31D1
:105A1000303631203A20696E646578203C3D20376D
:105A2000000000002E2E2F647269766572732F6657
:105A3000736C5F6C70756172742E633A3132322010
:105A40003A20696E7374616E6365203C2041525246
:105A500041595F53495A4528735F6C707561727480
:105A600042617365732900002E2E2F64726976657A
:105A700072732F66736C5F6C70756172742E633A0B
:105A8000313335203A204E554C4C20213D20686161
:105A90006E646C65000000002E2E2F6472697665BE
:105AA00072732F66736C5F6C70756172742E633ADB
:105AB000313536203A204E554C4C20213D2068612E
:105AC0006E646C65000000002E2E2F64726976658E
:105AD00072732F66736C5F6C70756172742E633AAB
:105AE000313733203A204E554C4C20213D20646103
:105AF000746100002E2E2F647269766572732F66B2
:105B0000736C5F6C70756172742E633A3138372034
:105B10003A204E554C4C20213D20646174610000B8
:105B20002E2E2F647269766572732F66736C5F6CAC
:105B300070756172742E633A323431203A204E55BA
:105B40004C4C20213D20636F6E66696700000000A9
:105B50002E2E2F647269766572732F66736C5F6C7C
:105B600070756172742E633A323432203A203055A7
:105B7000203C20636F6E6669672D3E6261756452DA
:105B80006174655F427073002E2E2F6472697665B2
:105B900072732F66736C5F6C70756172742E633AEA
:105BA000323434203A202875696E74385F7429467F
:105BB000534C5F464541545552455F4C50554152F8
:105BC000545F4649464F5F53495A456E2862617398
:105BD0006529203E3D20636F6E6669672D3E7478AF
:105BE0004669666F57617465726D61726B00000083
:105BF0002E2E2F647269766572732F66736C5F6CDC
:105C000070756172742E633A323435203A202875EB
:105C1000696E74385F742946534C5F46454154554C
:105C200052455F4C50554152545F4649464F5F5371
:105C3000495A456E286261736529203E3D20636F95
:105C40006E6669672D3E72784669666F5761746546
:105C5000726D61726B0000002E2E2F647269766582
:105C600072732F66736C5F6C70756172742E633A19
:105C7000353230203A204E554C4C20213D20636F68
:105C80006E666967000000002E2E2F6472697665CB
:105C900072732F66736C5F6C70756172742E633AE9
:105CA000353635203A203055203C206261756452EB
:105CB0006174655F427073002E2E2F647269766581
:105CC00072732F66736C5F6C70756172742E633AB9
:105CD000383333203A204E554C4C20213D2064610E
:105CE000746100002E2E2F647269766572732F66C0
:105CF000736C5F6C70756172742E633A383638203D
:105D00003A204E554C4C20213D20646174610000C6
:105D10002E2E2F647269766572732F66736C5F6CBA
:105D200070756172742E633A393630203A204E55C0
:105D30004C4C20213D2068616E646C6500000000C1
:105D40002E2E2F647269766572732F66736C5F6C8A
:105D500070756172742E633A31303235203A204EBC
:105D6000554C4C20213D2068616E646C650000003C
:105D70002E2E2F647269766572732F66736C5F6C5A
:105D800070756172742E633A31303236203A204E8B
:105D9000554C4C20213D2072696E674275666665E0
:105DA000720000002E2E2F647269766572732F6662
:105DB000736C5F6C70756172742E633A3130343974
:105DC000203A204E554C4C20213D2068616E646C79
:105DD000650000002E2E2F647269766572732F663F
:105DE000736C5F6C70756172742E633A3130383445
:105DF000203A204E554C4C20213D2068616E646C49
:105E0000650000002E2E2F647269766572732F660E
:105E1000736C5F6C70756172742E633A3130383513
:105E2000203A204E554C4C20213D2078666572006A
:105E30002E2E2F647269766572732F66736C5F6C99
:105E400070756172742E633A31303836203A204EC4
:105E5000554C4C20213D20786665722D3E6461745E
:105E6000610000002E2E2F647269766572732F66B2
:105E7000736C5F6C70756172742E633A31303837B1
:105E8000203A20305520213D20786665722D3E64F1
:105E900061746153697A65002E2E2F64726976658C
:105EA00072732F66736C5F6C70756172742E633AD7
:105EB00031313233203A204E554C4C20213D206860
:105EC000616E646C650000002E2E2F647269766529
:105ED00072732F66736C5F6C70756172742E633AA7
:105EE00031313437203A204E554C4C20213D20682A
:105EF000616E646C650000002E2E2F6472697665F9
:105F000072732F66736C5F6C70756172742E633A76
:105F100031313438203A204E554C4C20213D2063FD
:105F20006F756E74000000002E2E2F647269766506
:105F300072732F66736C5F6C70756172742E633A46
:105F400031313931203A204E554C4C20213D2068CA
:105F5000616E646C650000002E2E2F647269766598
:105F600072732F66736C5F6C70756172742E633A16
:105F700031313932203A204E554C4C20213D207889
:105F8000666572002E2E2F647269766572732F66B5
:105F9000736C5F6C70756172742E633A3131393392
:105FA000203A204E554C4C20213D20786665722DBC
:105FB0003E646174610000002E2E2F647269766564
:105FC00072732F66736C5F6C70756172742E633AB6
:105FD00031313934203A20305520213D2078666512
:105FE000722D3E6461746153697A65002E2E2F64B0
:105FF0007269766572732F66736C5F6C707561720F
:10600000742E633A31333135203A204E554C4C20B2
:10601000213D2068616E646C650000002E2E2F64A7
:106020007269766572732F66736C5F6C70756172DE
:10603000742E633A31333434203A204E554C4C2080
:10604000213D2068616E646C650000002E2E2F6477
:106050007269766572732F66736C5F6C70756172AE
:10606000742E633A31333435203A204E554C4C204F
:10607000213D20636F756E74000000002E2E2F648A
:106080007269766572732F66736C5F6C707561727E
:10609000742E633A31333637203A204E554C4C201B
:1060A000213D2068616E646C6500FFFF0000000008
:1060B000004018400080184000C0184000001940FF
:1060C000004019400080194000C0194000001A40EB
:1060D000FFFF18051C000C001801020306031A0537
:1060E0000E06FFFF0000000000401840008018402E
:1060F00000C01840000019400040194000801940BD
:1061000000C0194000001A402E2E2F636F6D706F73
:106110006E656E742F756172742F6C707561727418
:106120005F616461707465722E633A323238203A6E
:106130002068616E646C65002E2E2F636F6D706F2A
:106140006E656E742F756172742F6C7075617274E8
:106150005F616461707465722E633A323239203A3D
:1061600020636F6E666967002E2E2F636F6D706FF0
:106170006E656E742F756172742F6C7075617274B8
:106180005F616461707465722E633A323330203A15
:1061900020636F6E6669672D3E696E7374616E630E
:1061A00065203C202873697A656F6628735F4C70A0
:1061B00075617274416461707465724261736529BE
:1061C000202F2073697A656F66284C5055415254D0
:1061D0005F54797065202A29290000002E2E2F6334
:1061E0006F6D706F6E656E742F756172742F6C7049
:1061F000756172745F616461707465722E633A32A6
:106200003331203A20735F4C707561727441646160
:1062100070746572426173655B636F6E6669672D4A
:106220003E696E7374616E63655D00002E2E2F6390
:106230006F6D706F6E656E742F756172742F6C70F8
:10624000756172745F616461707465722E633A3255
:106250003939203A2068616E646C65002E2E2F63F8
:106260006F6D706F6E656E742F756172742F6C70C8
:10627000756172745F616461707465722E633A3324
:106280003230203A2068616E646C65002E2E2F63D8
:106290006F6D706F6E656E742F756172742F6C7098
:1062A000756172745F616461707465722E633A33F4
:1062B0003231203A20646174610000002E2E2F6379
:1062C0006F6D706F6E656E742F756172742F6C7068
:1062D000756172745F616461707465722E633A33C4
:1062E0003232203A206C656E677468002E2E2F6360
:1062F0006F6D706F6E656E742F756172742F6C7038
:10630000756172745F616461707465722E633A3393
:106310003431203A2068616E646C65002E2E2F6344
:106320006F6D706F6E656E742F756172742F6C7007
:10633000756172745F616461707465722E633A3363
:106340003432203A20646174610000002E2E2F63E5
:106350006F6D706F6E656E742F756172742F6C70D7
:10636000756172745F616461707465722E633A3333
:106370003433203A206C656E677468002E2E2F63CC
:106380006F6D706F6E656E742F73657269616C5F8F
:106390006D616E616765722F73657269616C5F6DA7
:1063A000616E616765722E633A373734203A207721
:1063B0007269746548616E646C6500002E2E2F63EF
:1063C0006F6D706F6E656E742F73657269616C5F4F
:1063D0006D616E616765722F73657269616C5F6D67
:1063E000616E616765722E633A373735203A2062F5
:1063F00075666665720000002E2E2F636F6D706FDC
:106400006E656E742F73657269616C5F6D616E612C
:106410006765722F73657269616C5F6D616E61672C
:1064200065722E633A373736203A206C656E677492
:10643000680000002E2E2F636F6D706F6E656E7496
:106440002F73657269616C5F6D616E616765722F34
:1064500073657269616C5F6D616E616765722E63F1
:106460003A373831203A2068616E646C650000006C
:106470002E2E2F636F6D706F6E656E742F73657245
:1064800069616C5F6D616E616765722F73657269BA
:10649000616C5F6D616E616765722E633A37393189
:1064A000203A207265616448616E646C650000008A
:1064B0002E2E2F636F6D706F6E656E742F73657205
:1064C00069616C5F6D616E616765722F736572697A
:1064D000616C5F6D616E616765722E633A37393248
:1064E000203A206275666665720000002E2E2F63CA
:1064F0006F6D706F6E656E742F73657269616C5F1E
:106500006D616E616765722F73657269616C5F6D35
:10651000616E616765722E633A373933203A206CB9
:10652000656E6774680000002E2E2F636F6D706FAC
:106530006E656E742F73657269616C5F6D616E61FB
:106540006765722F73657269616C5F6D616E6167FB
:1065500065722E633A373938203A2068616E646C70
:10656000650000002E2E2F636F6D706F6E656E7468
:106570002F73657269616C5F6D616E616765722F03
:1065800073657269616C5F6D616E616765722E63C0
:106590003A383039203A20636F6E66696700000030
:1065A0002E2E2F636F6D706F6E656E742F73657214
:1065B00069616C5F6D616E616765722F7365726989
:1065C000616C5F6D616E616765722E633A3831345C
:1065D000203A2073657269616C48616E646C650075
:1065E0002E2E2F636F6D706F6E656E742F736572D4
:1065F00069616C5F6D616E616765722F7365726949
:10660000616C5F6D616E616765722E633A39323914
:10661000203A2073657269616C48616E646C650034
:106620002E2E2F636F6D706F6E656E742F73657293
:1066300069616C5F6D616E616765722F7365726908
:10664000616C5F6D616E616765722E633A393837D0
:10665000203A2073657269616C48616E646C6500F4
:106660002E2E2F636F6D706F6E656E742F73657253
:1066700069616C5F6D616E616765722F73657269C8
:10668000616C5F6D616E616765722E633A3938388F
:10669000203A20777269746548616E646C65000009
:1066A0002E2E2F636F6D706F6E656E742F73657213
:1066B00069616C5F6D616E616765722F7365726988
:1066C000616C5F6D616E616765722E633A31303166
:1066D00031203A20777269746548616E646C650098
:1066E0002E2E2F636F6D706F6E656E742F736572D3
:1066F00069616C5F6D616E616765722F7365726948
:10670000616C5F6D616E616765722E633A31303125
:1067100036203A2068616E646C6500002E2E2F636F
:106720006F6D706F6E656E742F73657269616C5FEB
:106730006D616E616765722F73657269616C5F6D03
:10674000616E616765722E633A31303336203A20CC
:1067500073657269616C48616E646C65000000006D
:106760002E2E2F636F6D706F6E656E742F73657252
:1067700069616C5F6D616E616765722F73657269C7
:10678000616C5F6D616E616765722E633A313033A3
:1067900037203A207265616448616E646C65000060
:1067A0002E2E2F636F6D706F6E656E742F73657212
:1067B00069616C5F6D616E616765722F7365726987
:1067C000616C5F6D616E616765722E633A31303660
:1067D00034203A207265616448616E646C65000023
:1067E0002E2E2F636F6D706F6E656E742F736572D2
:1067F00069616C5F6D616E616765722F7365726947
:10680000616C5F6D616E616765722E633A3130361F
:1068100039203A2068616E646C6500002E2E2F636B
:106820006F6D706F6E656E742F73657269616C5FEA
:106830006D616E616765722F73657269616C5F6D02
:10684000616E616765722E633A31323839203A20C1
:1068500073657269616C48616E646C65000000006C
:106860002E2E2F636F6D706F6E656E742F73657251
:1068700069616C5F6D616E616765722F73657269C6
:10688000616C5F6D616E616765722E633A3132399A
:1068900036203A2073657269616C48616E646C657C
:1068A00000FFFFFF2E2E2F636F6D706F6E656E748D
:1068B0002F73657269616C5F6D616E616765722FC0
:1068C00073657269616C5F706F72745F7561727409
:1068D0002E633A313339203A2073657269616C4313
:1068E0006F6E6669670000002E2E2F636F6D706FEC
:1068F0006E656E742F73657269616C5F6D616E6138
:106900006765722F73657269616C5F706F72745F17
:10691000756172742E633A313430203A2073657297
:1069200069616C48616E646C650000002E2E2F63F7
:106930006F6D706F6E656E742F73657269616C5FD9
:106940006D616E616765722F73657269616C5F70EE
:106950006F72745F756172742E633A323030203A10
:106960002073657269616C48616E646C650000003B
:106970002E2E2F636F6D706F6E656E742F73657240
:1069800069616C5F6D616E616765722F73657269B5
:10699000616C5F706F72745F756172742E633A32EE
:1069A0003637203A2073657269616C48616E646C99
:1069B000650000002E2E2F636F6D706F6E656E7414
:1069C0002F73657269616C5F6D616E616765722FAF
:1069D00073657269616C5F706F72745F75617274F8
:1069E0002E633A323638203A206275666665720048
:1069F0002E2E2F636F6D706F6E656E742F736572C0
:106A000069616C5F6D616E616765722F7365726934
:106A1000616C5F706F72745F756172742E633A326D
:106A20003639203A206C656E677468002E2E2F630D
:106A30006F6D706F6E656E742F73657269616C5FD8
:106A40006D616E616765722F73657269616C5F70ED
:106A50006F72745F756172742E633A323831203A06
:106A60002073657269616C48616E646C650000003A
:106A70002E2E2F636F6D706F6E656E742F7365723F
:106A800069616C5F6D616E616765722F73657269B4
:106A9000616C5F706F72745F756172742E633A32ED
:106AA0003832203A20627566666572002E2E2F639A
:106AB0006F6D706F6E656E742F73657269616C5F58
:106AC0006D616E616765722F73657269616C5F706D
:106AD0006F72745F756172742E633A323833203A84
:106AE000206C656E677468002E2E2F64726976655F
:106AF00072732F66736C5F636C6F636B2E683A39C9
:106B00003930203A20627573795368696674203C85
:106B10003D2043434D5F4E4F5F425553595F5741B0
:106B2000495400002E2E2F647269766572732F66A9
:106B3000736C5F636C6F636B2E683A313032372051
:106B40003A20627573795368696674203C3D20432E
:106B5000434D5F4E4F5F425553595F574149540073
:106B60002E2E2F647269766572732F66736C5F6365
:106B70006C6F636B2E683A31303631203A20696E83
:106B8000646578203C3D203700FFFFFF6400000073
:106B900000000000010000000000000001000000F3
:106BA00000000000000000002E2E2F647269766540
:106BB00072732F66736C5F636C6F636B2E683A3110
:106BC000303631203A20696E646578203C3D2037AC
:106BD00000000000010100FF030000002A2A2A2013
:106BE000617373657274206661696C6564203A2014
:106BF000002A2A2A205F437379735F616C6C6F638C
:106C0000206661696C65640A0072007700FFFFFF0F
:046C100000A4781F45
:040000056000100087
:00000001FF
