:0200000460009A
:100000004643464200000156000000000101020084
:1000100000000000000000000000000000000000E0
:1000200000000000000000000000000000000000D0
:1000300000000000000000000000000000000000C0
:1000400000000000010403000000000000000000A8
:100050000000200000000000000000000000000080
:100060000000000000000000000000000000000090
:100070000000000000000000000000000000000080
:10008000EB04180A063204260000000000000000FD
:10009000050404240000000000000000000000002F
:1000A0000000000000000000000000000000000050
:1000B0000604000000000000000000000000000036
:1000C0000000000000000000000000000000000030
:1000D00020041808000000000000000000000000DC
:1000E0000000000000000000000000000000000010
:1000F0000000000000000000000000000000000000
:10010000D8041808000000000000000000000000F3
:100110000204180804200000000000000000000095
:1001200000000000000000000000000000000000CF
:10013000600400000000000000000000000000005B
:1001400000000000000000000000000000000000AF
:10015000000000000000000000000000000000009F
:10016000000000000000000000000000000000008F
:10017000000000000000000000000000000000007F
:10018000000000000000000000000000000000006F
:10019000000000000000000000000000000000005F
:1001A000000000000000000000000000000000004F
:1001B000000000000000000000000000000000003F
:1001C000000100000010000001000000000000001D
:1001D000000001000000000000000000000000001E
:1001E000000000000000000000000000000000000F
:1001F00000000000000000000000000000000000FF
:10020000FFFFFFFFFFFFFFFFFFFFFFFFFFFFFFFFFE
:10021000FFFFFFFFFFFFFFFFFFFFFFFFFFFFFFFFEE
:10100000D10020400020006000000000000000002F
:1010100020100060001000600000000000000000D0
:10102000000000604C26000000000000FFFFFFFFF2
:10103000FFFFFFFFFFFFFFFFFFFFFFFFFFFFFFFFC0
:10104000FFFFFFFFFFFFFFFFFFFFFFFFFFFFFFFFB0
:10105000FFFFFFFFFFFFFFFFFFFFFFFFFFFFFFFFA0
:10106000FFFFFFFFFFFFFFFFFFFFFFFFFFFFFFFF90
:1020000000000120092000600A4B0B4A5A64072295
:102010001A644FF42A029A63084B094A934202D089
:1020200008498B4201D300F00FF852F8040B43F833
:10203000040BF6E700C00A40ABAAAAAA0000000001
:1020400050200060582700005FF800F0F502000003
:1020500010210020F50200003D0300009F1F00003A
:102060000000000000000000000000000000000070
:10207000000000000000000000000000410300001C
:1020800000000000000000004303000045030000C2
:10209000AF1A0000B71A0000BF1A0000C71A0000EC
:1020A000CF1A0000D71A0000DF1A0000E71A00005C
:1020B000EF1A0000F71A0000FF1A0000071B0000CB
:1020C0000F1B0000171B00001F1B0000271B000038
:1020D0002F1B0000371B00003F1B0000471B0000A8
:1020E0004F1B0000571B00005F1B0000671B000018
:1020F0006F1B0000771B00007F1B0000871B000088
:102100008F1B0000971B00009F1B0000A71B0000F7
:10211000AF1B0000B71B0000BF1B0000C71B000067
:10212000CF1B0000D71B0000DF1B0000E71B0000D7
:10213000EF1B0000F71B0000FF1B0000071C000046
:102140000F1C0000171C00001F1C0000271C0000B3
:102150002F1C0000371C00003F1C0000471C000023
:102160004F1C0000571C00005F1C0000671C000093
:102170006F1C0000771C00007F1C0000871C000003
:102180008F1C0000971C00009F1C0000A71C000073
:10219000AF1C0000B71C0000BF1C0000C71C0000E3
:1021A000CF1C0000D71C0000DF1C0000E71C000053
:1021B000EF1C0000F71C0000FF1C0000071D0000C2
:1021C0000F1D0000171D00001F1D0000271D00002F
:1021D0002F1D0000371D00003F1D0000471D00009F
:1021E0004F1D0000571D00005F1D0000671D00000F
:1021F0006F1D0000771D00007F1D0000871D00007F
:102200008F1D0000971D00009F1D0000A71D0000EE
:10221000AF1D0000B71D0000BF1D0000C71D00005E
:10222000CF1D0000D71D0000DF1D0000E71D0000CE
:10223000EF1D0000F71D0000FF1D0000071E00003D
:102240000F1E0000171E00001F1E0000271E0000AA
:102250002F1E0000371E00003F1E0000471E00001A
:102260004F1E0000571E00005F1E0000671E00008A
:102270006F1E0000771E00007F1E0000871E0000FA
:102280008F1E0000971E00009F1E0000A71E00006A
:10229000AF1E0000B71E0000BF1E0000C71E0000DA
:1022A000CF1E0000D71E0000DF1E0000E71E00004A
:1022B000EF1E0000F71E0000FF1E0000071F0000B9
:1022C0000F1F0000171F00001F1F0000271F000026
:1022D0002F1F0000371F00003F1F0000471F000096
:1022E0004F1F0000571F00005F1F0000671F000006
:1022F0006F1F0000771F00007F1F0000871F000076
:102300008F1F0000971F00009846006048260000BD
:10231000000000009846006000000020040000005B
:1023200098460060000020200000000048260000C1
:1023300000000000040000200C010000000020202C
:102340000000000038B572B60D4C00F0E7FD0D4DF1
:10235000AC4206D30C4DAC420BD362B601F02BFF5E
:10236000FEE7D4E900010C3454F8042C00F014F812
:10237000EEE754F8080B54F8041C00F016F8EAE7EE
:10238000B8020000DC020000F4020000FEE7FEE7F5
:10239000FEE7FEE7FEE7FEE7002310B5934200D319
:1023A00010BD1C585C500433F8E700231A468B42DA
:1023B00000D370471A500433F9E7FFFF10B50A46FF
:1023C0000C460146044801F0C2FE00280CBF20461E
:1023D0004FF0FF3010BD00BF1C00002030B589B0A9
:1023E0000025CDE904310123ADF818508DF81A000D
:1023F0009A428DF81B308DF81C308DF808201CD1C6
:102400000F4C04AB1C2229462046039301F0DAFE50
:1024100069462046246101F066FE04F1140120693A
:1024200001F076FE04F11801206901F07FFE2269B7
:10243000044B28461A6009B030BD43F22150FAE738
:1024400008000020040000200FB400B5A3B08022D3
:10245000002102A801F0B6FE094B186850B125A969
:10246000084B02AA2498019100F00EF8014602A838
:10247000FFF7A4FF23B05DF804EB04B0704700BF82
:1024800004000020751A00002DE9F04F00258DB0E2
:102490000746904699460C462E464FF00A0A02958A
:1024A0003A781AB902980DB0BDE8F08F252A3AD0D3
:1024B000BB46012302A94046C8470BF10107EFE7DD
:1024C0000AFB03131746303B79787A1CA1F13000E0
:1024D0000928F5D92E2905D15178501C3039092900
:1024E00023D917467A7807F1010BA2F16200642A1A
:1024F000C0B21CD0692A1AD002F0DF01462923D0CD
:10250000582921D0132803D86449C140CF071BD4D0
:10251000632A40F0A48054F8042B0123D2B202A90C
:102520004046C847C9E70023CEE70246D4E7002566
:1025300054F8041B03AE8DF80C50002945D130210E
:1025400001258DF80D102E44582A4FD0782A68D1D5
:102550000027002554F8041B03AE8DF80C50002909
:1025600046D1302101258DF80D102E44132819D89D
:102570004A4921FA00F0C10714D56F2A54F8041B08
:1025800051D0622A51D0702A0CBF10220A2200209A
:1025900003AE8DF80C00002949D1302201258DF8B9
:1025A0000D202E445B1B202202A94046C847002E66
:1025B00083D037463E4617F80129002A3FF47DAF05
:1025C000012302A94046C847F4E701273D4691FB95
:1025D000FAFC0AFB1C110029B4BFC1F130013031F3
:1025E000F155614601370029F0D1ACE70127B0E78A
:1025F000002F4FF0010C14BF3725572501954FEAE6
:10260000111E01F00F0109298ABF019D30314919BE
:10261000654606F80C1071460CF1010C0029EED14C
:10262000A3E70127A2E70822B1E70222AFE7002FC4
:102630004FF0010014BF4FF0370C4FF0570CB1FBB7
:10264000F2F702FB1715092D94BF303565448A4215
:102650003554054600F10100A3D83946EFE7732A47
:102660001AD154F8047B002F3FF427AF384601936A
:1026700001F0C2FD019B013F05461B1A202202A961
:102680004046C84717F8012F002A3FF416AF012330
:1026900002A94046C847F5E7012340E7016008006A
:1026A00082B00023064A01930193019B934201D912
:1026B00002B0704700BF019B01330193F5E700BFF3
:1026C000FF23F40080B501F075F8164C00F07AFD98
:1026D000154F01F064FD154D00F08AFB1448FFF71B
:1026E000B3FE00220321114801F096FC114E012394
:1026F00023703846FFF7D4FF237853B128460022D1
:10270000032101F089FC00230B482370FFF79CFE96
:10271000EFE728460122032101F07EFC0123304629
:102720002370F3E70C0100208096980000C01B4046
:102730002A2600003D26000039260000044BD3F86D
:102740007032DB0602D4034B1868704702487047AA
:1027500000800D402800002000366E010A4B4FF02B
:102760008042C3F85821D3F87022D103FBD54FF42F
:102770008032C3F85421D3F850211204FBD54FF412
:102780008032C3F85821704700800D40044B10225E
:1027900010B9C3F874227047C3F87822704700BF9D
:1027A00000800D40034AD2F8703243F00103C2F8B2
:1027B0007032704700800D400F4B02791968920308
:1027C00021F4E03192B20A4342F480321A6019686F
:1027D000026821F4415102F07F0221F03F010A43D7
:1027E00042F400521A601A68002AFCDA1A6822F4CD
:1027F00080321A60704700BF00800D40184B027B8A
:10280000196B920321F4E03192B20A4342F4803210
:102810001A63196B027821F4405102F0010221F091
:1028200001010A43C18942F400521A63426822F04E
:1028300040421A65826822F040421A66428AC2F318
:102840000E0242EA0142017CC90389B20A431A64BA
:102850001A6B002AFCDA1A6B22F480321A63704772
:1028600000800D40014B00221A62704700800D402D
:10287000024B4FF480521A67704700BF00800D4032
:10288000024B4FF48052C3F8A020704700800D40E7
:10289000024B4FF48052C3F8E020704700800D4097
:1028A0001FB5774B04460DF1100C0FCB0CE90F0050
:1028B000C4F30B4204F01F0302F1804202F55822D8
:1028C0001068D84010F0010016D0136813F4404F80
:1028D00014D1FFF733FF0346106810F4803040F046
:1028E000CD80684A94427ED02FD8A2F5C00294428F
:1028F00070D005D80D2C66D004B010BD0023EBE7D6
:10290000614A944200F0B78002F580129442F3D1FC
:102910005E4A07EE903A92ED146AB8EE677B92ED4C
:10292000185AB8EE466B126BB8EE455BD20727EE2D
:10293000067B4CBF16201420434387EE056BFCEE4C
:10294000C67B17EE900A1844D6E7514A94427FD0CE
:1029500030D8A2F580029442CED14C4A07EE903A8C
:10296000D2F8A010B8EE677B92ED2C5A92ED306A47
:1029700001F07F01B8EE455BB8EE466B27EE055BD4
:1029800085EE067BFCEEC77B17EE900A03FB010089
:10299000D2F8A03013F4C01356D0B3F5002F55D0A1
:1029A000D2F8703103F04043B3F1804F10D0B3F14F
:1029B000404F41E0374B9C4255D0374A374B944209
:1029C00008BF184698E7314A106800F07F00584366
:1029D000400891E72D4A126912F0020F14BF162029
:1029E0001420584388E7294A07EE903A116FB8EE51
:1029F000677B92ED205A92ED246A01F07F01B8EED8
:102A0000455BB8EE466B27EE055B85EE067BFCEE7C
:102A1000C77B17EE900A03FB0100136F13F4C0137A
:102A20000ED0B3F5002F0DD0D2F870311C4A1340F0
:102A3000B3F5004FCCD093427FF45EAF80085BE7E4
:102A40008008F1E74008EFE78008A9E74008A7E71A
:102A50000E4B04AAD3F8E03003F0030302EB830328
:102A600053F8100C48E7094B04AAD3F8E03003F000
:102A70000C031344F4E7054A126AADE718463BE736
:102A80006C2500000D0070000D00200000800D403E
:102A90000D00E0001400E0001500E00040787D012A
:102AA0000080800010B5C000094CBF2301F03F0139
:102AB000D4F800218340814022EA0302802383402E
:102AC00011431343C4F80031C4F8001110BD00BF16
:102AD00000800D40F8B5174604460E461B4A0023F9
:102AE00052F8041B8C4214D001330A2BF8D1012573
:102AF0006269B540EB431A4062613A78E2B96268B4
:102B000013406360BA7831462046BDE8F84001F0D2
:102B10008EBA052BEBD80E4A32F913305A1CE6D088
:102B2000180A0C4903F01F02032351F82050934068
:102B30002B4341F82030DAE77A783146204601F01D
:102B40006BFA63681D436560DCE700BF7C2500000D
:102B50000C26000068C00F4030B500F01F02064D83
:102B6000000A0324914055F82030944023EA0403DE
:102B70000B4345F8203030BD68C00F40054A0023A4
:102B800052F8041B814202D00133092BF8D11846B8
:102B9000704700BFA42500002DE9F8430B6800260C
:102BA00004460D464FEA830998464FF0040C374619
:102BB000B2FBF9F189B29944002908BF01210CFB4D
:102BC00001F0B2FBF0FE6044AEEB030EB2FBF0F09E
:102BD000181A70453EBF0131864689B2C64598BF76
:102BE00066460CF1010C9CBFF0460F46BCF1210F6C
:102BF000DED16422B3FBF2F303EB43034345C0F0A1
:102C00008E802046C7F30C07FFF7B8FF454B032122
:102C100033F91000FFF7A0FFA368321F013E43F015
:102C200002032979032A4FEA0666A360A36806F027
:102C3000F85623F00203A360236998BF43F40033DE
:102C400023F01F2323F0FF031E433E432661236925
:102C500023F000532361A269EB7B22F4E2621B02A2
:102C600022F0070203F4E0630A431A43AB7B9B00A4
:102C700003F0040313436A79012A4BD1002946D09B
:102C800023F40063A361EB7922695B0322F4005211
:102C900003F40053134323616A7A2B7A43EA024315
:102CA0002A7BE3625201A36A02F0200243F0880308
:102CB000A362A36A43F44043A3626B7B616A1B0176
:102CC00003F0100313430B436362AB7A1BB1636AD7
:102CD00043F008036362EB7A1BB1636A43F00103BC
:102CE0006362A979104B114A002918BF1A4663691B
:102CF00013432A7C6361A3690AB143F400236A7C0D
:102D00000AB143F480230020A361BDE8F88343F4B3
:102D10000063B7E70029B5D043F01003B2E740F2F3
:102D20002150F2E71826000000C01FE000C01FC0BD
:102D3000024B034A1B6851680248184750000020A4
:102D40002C00002000401840024B034A1B68916889
:102D500002481847500000202C0000200080184036
:102D6000024B034A1B68D1680248184750000020F4
:102D70002C00002000C01840024B034A1B68116958
:102D800002481847500000202C0000200000194085
:102D9000024B034A1B685169024818475000002043
:102DA0002C00002000401940024B034A1B68916927
:102DB00002481847500000202C00002000801940D5
:102DC000024B034A1B68D169024818475000002093
:102DD0002C00002000C01940024B034A1B68116AF6
:102DE00002481847500000202C00002000001A4024
:102DF000F8B5444B5C6914F0007432D09B6903F45D
:102E00004053B3F5805F28D0B3F5005F22D033BBC9
:102E10003D4B1A691B69D10305D513F4404F3B4C58
:102E200018BF002405E013F0020F3948394C08BFE1
:102E30000446344B5869C0F3C2600130B4FBF0F46F
:102E4000304B5869344BC0F382200130B4FBF0F4AE
:102E50001C60F8BD2C4B1B6BDFE72C4CE9E7002412
:102E6000E7E7294B294E1A6812F4803F1A6822D0EE
:102E700012F4404F18BF00261A6B1B6BD2031FD5EC
:102E800013F4404F214D18BF00251F4F00231F4949
:102E9000386D3A6EA0FB010101F0A7FA194A2844E7
:102EA000936903F44023B3F5802F1DD00FD8002B76
:102EB00008BF0446C4E702F07F0256437608DBE70A
:102EC00013F0010F1348124D18BF0546DDE7B3F5A7
:102ED000002F12D0B3F5402FB2D1146904F00704CB
:102EE0000134B6FBF4F4ABE7D7F80041C4F3054472
:102EF000B0FBF4F012244443A2E7D7F8004104F0F9
:102F00003F04F5E700C00F4000800D4000366E0121
:102F100000389C1C00A4781F00000020404B414951
:102F2000D3F8882042F4700270B5C3F888203E4A76
:102F30009A600B8923F001031B041B0C0B813B4B94
:102F40001A8922F001021204120C1A810A88500711
:102F500005D50A8822F004021204120C0A801A888D
:102F6000510705D51A8822F004021204120C1A80A7
:102F70002F4A304B53604FF6FF739360136823F072
:102F8000A00343F0200313602B4B1A68D20703D52C
:102F90001A6822F001021A60214B5A6912F40032B9
:102FA00011D1BFF34F8FBFF36F8FC3F85022BFF320
:102FB0004F8FBFF36F8F5A6942F400325A61BFF3EB
:102FC0004F8FBFF36F8F164A536913F4803324D1A8
:102FD000C2F88430BFF34F8FD2F8803043F6E074EC
:102FE000C3F3C900C3F34E335B0103EA0406014691
:102FF00046EA817511F1FF31C2F86052F8D2203BE8
:1030000013F1200FF1D1BFF34F8F536943F4803395
:103010005361BFF34F8FBFF36F8F01F063F870BD43
:1030200000ED00E000800B400000000000000D40BB
:1030300000C00B4020C528D910E000E030B587B0B3
:103040000C46054601A801F033F863680193237A22
:10305000012B21D102238DF8083001A9637A207B4E
:103060005A1E5342534122688DF80B30A37A003325
:1030700018BF01238DF81530E37A003318BF012300
:103080008DF81430084B53F82000FFF785FD40B948
:10309000237B2B7007B030BD022B0CBF0323002312
:1030A000D9E742F6AF70F5E7C825000008B5044B34
:1030B000007853F8200001F00AF8002008BD00BF96
:1030C000C825000010B5114C236813F0400F2346AB
:1030D0000CD10F48FFF7E4FB2268062302F03F0201
:1030E000B0FBF3F00132B0FBF2F010BD094AD2F8A8
:1030F0007022D20608D4084A10681B6803F03F0308
:103100000133B0FBF3F0F0E70448F6E724C00F40CA
:103110000D00100000800D402800002000366E01D8
:10312000C3B2C0F3042203F18043914003F57C2332
:1031300030B51D68840EC0F34C306940202C00FA75
:1031400002F000EA010080EA0500186005D00123C2
:103150000249A3408A6C1A42FCD130BD00C00F4026
:10316000C3B2C0F3042203F18043914003F57C23F2
:1031700030B51D68840EC0F34C306940202C00FA35
:1031800002F000EA010080EA0500186005D0012382
:103190000249A3408A6C1A42FCD130BD00C00F40E6
:1031A00010B50749040A032200F01F0051F824302B
:1031B00002FA00F023EA000341F8243010BD00BFFA
:1031C00068C00F4038B54FF40042DC4B00201A6055
:1031D000DB4BD3F8C02242F48032C3F8C022D3F8CC
:1031E000C02222F40032C3F8C022D64BD64A1A605D
:1031F000FFF7B4FAFFF7D6FA0120FFF7C7FAD34A70
:103200000121D348136823F0FF0343F07F031360C9
:10321000FFF786FF0121CF48FFF782FFCE4BDA6828
:1032200022F01F0242F01302DA601A68002AFCDA68
:103230000021CA48FFF794FF4FF48870FFF7B0FFF2
:103240004FF48470FFF7ACFF40F21620FFF7A8FFA1
:103250004FF40670FFF7A4FF40F20E20FFF7A0FF27
:103260000321BF484FF48035FFF77AFF0121BD48A5
:10327000FFF776FF0021BC48FFF772FF4FF48A701A
:10328000FFF78EFF4FF48B70FFF78AFF1820FFF7D0
:1032900087FF1A20FFF784FF4FF48670FFF780FF47
:1032A0000121B248FFF75CFF40F20260FFF778FFB0
:1032B0000121AF48FFF754FF0021AE48FFF730FF70
:1032C00040F20460FFF76CFF0121AB48FFF748FFB5
:1032D0000021AA48FFF724FF4FF44170FFF760FF79
:1032E00007214FF21400964CFFF73AFF0021A44843
:1032F000FFF716FF0021A348FFF712FF40F202700C
:10330000FFF74EFF0021A048FFF72AFF01219F4849
:10331000FFF706FF40F20220FFF742FF01219C4821
:10332000FFF71EFF00219B48FFF7FAFE4FF4807065
:10333000FFF736FF4FF48170FFF732FF4FF48270D2
:10334000FFF72EFF4FF48370FFF72AFF0421924806
:10335000FFF706FF02219148FFF7E2FE1620FFF774
:103360001FFF02218E48FFF7FBFE02218D48FFF769
:10337000D7FE40F21250FFF713FF03218A48FFF7F0
:10338000EFFE01218948FFF7EBFE00218848FFF797
:10339000C7FE40F21450FFF703FF03218548FFF7F3
:1033A000DFFE01218448FFF7DBFE00218348FFF7A1
:1033B000B7FE40F21650FFF7F3FE03218048FFF7F7
:1033C000CFFE01217F48FFF7CBFE00217E48FFF7AB
:1033D000A7FE40F20620FFF7E3FE4FF40270FFF76E
:1033E000DFFE40F20A20FFF7DBFE00217748FFF7FF
:1033F000B7FE00217648FFF793FE0E20FFF7D0FEC0
:103400001220FFF7CDFE40F20670FFF7C9FE102034
:10341000FFF7C6FE1420FFF7C3FE4FF4E160FFF78D
:10342000BFFE01216B48FFF79BFE02216A48FFF7B0
:1034300077FE4FF4A360FFF7B3FE1C20FFF7B0FE4A
:103440000C20FFF7ADFE4FF48C70FFF7A9FE40F2A1
:103450000230FFF7A5FE40F20630FFF7A1FE40F272
:103460001A50FFF79DFE40F20E60FFF799FE002113
:103470005A48FFF775FE00215948FFF751FE40F208
:103480000A30FFF78DFE07215648FFF769FE062137
:103490005548FFF765FE05215448FFF741FE40F20D
:1034A0000E50FFF77DFE01215148FFF759FE07211D
:1034B0005048FFF755FE03214F48FFF731FE40F219
:1034C0000250FFF76DFE01214C48FFF749FE07212E
:1034D0004B48FFF745FE03214A48FFF721FE4FF412
:1034E0004070FFF75DFE01214748FFF739FE0721D5
:1034F0004648FFF735FE03214548FFF711FE00213E
:103500004448FFF70DFE4448FFF756F94348FFF7DC
:1035100075F91B210020FFF7C5FA10210120FFF7E4
:10352000C1FA18210220FFF7BDFA10210320FFF78E
:10353000B9FAFFF79DF93A4B1D6073E024000020B3
:1035400000800D402800002000366E0100C00F40B2
:10355000186C0080143900140000084014EA0004BC
:103560001468008010E0004014FB00801CE007801D
:1035700024EB00801C30008024F000801C3100808F
:10358000142700801426008018FD00801868008031
:103590003CEB00803C69008018FA008018640080D1
:1035A00024790080186E008028E6008028E00780DB
:1035B0001C6A00802CE600802CE007801C6C0080D8
:1035C00028F6008028F007801C6E008038F3078002
:1035D0003832008020E207802068008024E00780E5
:1035E0002426008038EC008018F7008038EF008037
:1035F00030F9008030F600803074008030EC0080BC
:1036000030E900803067008028E9008028F90080D8
:10361000207300800C200080EC250000F4250000C1
:1036200074800D40D4F8703123F40043C4F8703135
:10363000D4F8703123F40003C4F87031236F43F4DD
:1036400000532367FFF71CF9D4F8A0302B43C4F8CC
:10365000A030D4F8703123F04043C4F87031D4F86E
:10366000A03043F40053C4F8A030FFF711F9484BE1
:103670001D60D4F8E03023F0030343F00103C4F8E5
:10368000E030D4F8E03043F40053C4F8E030D4F82C
:10369000E03023F00C03C4F8E030D4F8E03043F419
:1036A0008013C4F8E030D4F8E03043F40013C4F8D9
:1036B000E030FFF7D7F8374B032137481D60236A06
:1036C00043F400532362FFF72BFD00213348FFF73B
:1036D00027FD00213248FFF723FD00213148FFF785
:1036E0001FFDD4F8603123F01F03C4F860312E4B66
:1036F0001A6E22F070021A661A6E22F00F0242F061
:1037000001021A661A6E22F460021A661A6E22F418
:10371000F81242F490121A661A6E22F480721A6637
:103720001A6E22F080021A661A6E22F080721A66F1
:10373000A3F5A0235A6822F007025A605A6822F0C3
:1037400038025A605A6822F0C0025A605A6822F45D
:1037500040725A605A6822F440625A609A6822F0B5
:103760009F6222F4E0229A605A6822F400525A6062
:103770005A6822F480425A605A6922F080525A6193
:103780005A6922F000525A61084B094A1A6038BD42
:10379000E4800D4024800D4018720080143900141C
:1037A000186C00801C26008000C00F400000002024
:1037B0000046C32307B5104A03211048136843F09D
:1037C0000C0313600E4B1A889B78ADF8042001AAF5
:1037D0008DF80630FFF77EF900220A4B0A491A607D
:1037E00002230B604B600521084B1960084BD96E12
:1037F000DA6603B05DF804FB78C00F4000C01B40E0
:1038000041260000E0801F40EC801F4048811F409F
:1038100000C00A4010B5174A0020174900F012FDF9
:103820004FF480734FF480620021124800F02EF8AC
:10383000124A1349012000F005FD4FF480734FF444
:10384000806200210D4800F021F80E4B1B68022B0E
:103850000EDD0D4A02200A4900F0F4FC4FF480739B
:103860004FF4806200210848BDE8104000F00EB817
:1038700010BD00BF58000020442600009400002026
:103880004626000008260000D000002070B5C4685D
:10389000A50708D0B2F5007F11D0B2F5806F04D033
:1038A000B2F5807F0BD0012008E000F12401012354
:1038B000144301610160C361C460002070BD5E1EDD
:1038C000014DAE42F4D9EEE7FEFFFF00F7B5044626
:1038D00098B103B0BDE8F04000F01EBD07FB0460E6
:1038E000013400F019FD002818BF4FF0FF35019B8F
:1038F000A342F3DC284603B0F0BD034B05463C274A
:10390000024E1B680193F2E70826000058000020D1
:103910002DE9F843C66804463C4B0D4690463340BB
:103920001BB902273846BDE8F883D0F81490484602
:1039300000F035FE07460028F3D1B8F1010F2CD076
:10394000B8F1020F2ED0B8F1000FEAD1002DE8DB5C
:10395000B00404D52368E26A9A4238BFE362A169E1
:10396000A9420EDC2368E26A934238BF13462269FB
:103970005818801AA84204DB206B01EB000CAC4500
:1039800034DC002346F02006A562C4E9013326F4A6
:10399000032626F04006E660C4E7204600F038F82B
:1039A0000544D3E7484600F0F7FDB0F1000CE268AB
:1039B00004DA42F080020127E260B3E7E36A1846C6
:1039C000A3691946236883422CBFC91809189206B7
:1039D0000B462169A3EB010303D5A26A9342B8BF4A
:1039E00013466345ACBFED186544AFE76D1AB107E8
:1039F00044BF281AA060F10726F0200644BF9B1A96
:103A0000EB1A154448BF63602560C0E7030010004F
:103A1000C3689A0705D10F4B21224FF0FF301A607F
:103A2000704703F020021B030AD512B1806A0138E7
:103A3000704703688269006913441B1A581E704757
:103A40000AB1806A70470368826900691344181AD2
:103A5000704700BF540000202DE9F041D568804632
:103A60000E461446EB02576905D545F01005384659
:103A700000F092FDA061124B2B408BB1A16938463A
:103A800000F093FD002806DAE3684FF0FF3043F0C2
:103A90008003E36011E025F4003525F01005E560B2
:103AA00032464146384600F086FD20F00043F61AC3
:103AB000A3691E44A6610028E6D1BDE8F08100BFDD
:103AC000100002002DE9F843002506460C469046FA
:103AD0001F46A946BD4201DBBDE8F88321684B1CA7
:103AE0007F2B04D93046FEF769FCC4F800902368A8
:103AF000013506F80380216801312160EAE708B545
:103B0000FEF749FC08BD08B5FEF745FC08BD08B541
:103B1000FEF741FC08BD08B5FEF73DFC08BD08B541
:103B2000FEF739FC08BD08B5FEF735FC08BD08B541
:103B3000FEF731FC08BD08B5FEF72DFC08BD08B541
:103B4000FEF729FC08BD08B5FEF725FC08BD08B541
:103B5000FEF721FC08BD08B5FEF71DFC08BD08B541
:103B6000FEF719FC08BD08B5FEF715FC08BD08B541
:103B7000FEF711FC08BD08B5FEF70DFC08BD08B541
:103B8000FEF709FC08BD08B5FEF705FC08BD08B541
:103B9000FEF701FC08BD08B5FEF7FDFB08BD08B542
:103BA000FFF7C6F808BD08B5FFF7CEF808BD08B5A1
:103BB000FFF7D6F808BD08B5FFF7DEF808BD08B571
:103BC000FFF7E6F808BD08B5FFF7EEF808BD08B541
:103BD000FFF7F6F808BD08B5FFF7FEF808BD08B511
:103BE000FEF7D9FB08BD08B5FEF7D5FB08BD08B543
:103BF000FEF7D1FB08BD08B5FEF7CDFB08BD08B543
:103C0000FEF7C9FB08BD08B5FEF7C5FB08BD08B542
:103C1000FEF7C1FB08BD08B5FEF7BDFB08BD08B542
:103C2000FEF7B9FB08BD08B5FEF7B5FB08BD08B542
:103C3000FEF7B1FB08BD08B5FEF7ADFB08BD08B542
:103C4000FEF7A9FB08BD08B5FEF7A5FB08BD08B542
:103C5000FEF7A1FB08BD08B5FEF79DFB08BD08B542
:103C6000FEF799FB08BD08B5FEF795FB08BD08B542
:103C7000FEF791FB08BD08B5FEF78DFB08BD08B542
:103C8000FEF789FB08BD08B5FEF785FB08BD08B542
:103C9000FEF781FB08BD08B5FEF77DFB08BD08B542
:103CA000FEF779FB08BD08B5FEF775FB08BD08B542
:103CB000FEF771FB08BD08B5FEF76DFB08BD08B542
:103CC000FEF769FB08BD08B5FEF765FB08BD08B542
:103CD000FEF761FB08BD08B5FEF75DFB08BD08B542
:103CE000FEF759FB08BD08B5FEF755FB08BD08B542
:103CF000FEF751FB08BD08B5FEF74DFB08BD08B542
:103D0000FEF749FB08BD08B5FEF745FB08BD08B541
:103D1000FEF741FB08BD08B5FEF73DFB08BD08B541
:103D2000FEF739FB08BD08B5FEF735FB08BD08B541
:103D3000FEF731FB08BD08B5FEF72DFB08BD08B541
:103D4000FEF729FB08BD08B5FEF725FB08BD08B541
:103D5000FEF721FB08BD08B5FEF71DFB08BD08B541
:103D6000FEF719FB08BD08B5FEF715FB08BD08B541
:103D7000FEF711FB08BD08B5FEF70DFB08BD08B541
:103D8000FEF709FB08BD08B5FEF705FB08BD08B541
:103D9000FEF701FB08BD08B5FEF7FDFA08BD08B542
:103DA000FEF7F9FA08BD08B5FEF7F5FA08BD08B543
:103DB000FEF7F1FA08BD08B5FEF7EDFA08BD08B543
:103DC000FEF7E9FA08BD08B5FEF7E5FA08BD08B543
:103DD000FEF7E1FA08BD08B5FEF7DDFA08BD08B543
:103DE000FEF7D9FA08BD08B5FEF7D5FA08BD08B543
:103DF000FEF7D1FA08BD08B5FEF7CDFA08BD08B543
:103E0000FEF7C9FA08BD08B5FEF7C5FA08BD08B542
:103E1000FEF7C1FA08BD08B5FEF7BDFA08BD08B542
:103E2000FEF7B9FA08BD08B5FEF7B5FA08BD08B542
:103E3000FEF7B1FA08BD08B5FEF7ADFA08BD08B542
:103E4000FEF7A9FA08BD08B5FEF7A5FA08BD08B542
:103E5000FEF7A1FA08BD08B5FEF79DFA08BD08B542
:103E6000FEF799FA08BD08B5FEF795FA08BD08B542
:103E7000FEF791FA08BD08B5FEF78DFA08BD08B542
:103E8000FEF789FA08BD08B5FEF785FA08BD08B542
:103E9000FEF781FA08BD08B5FEF77DFA08BD08B542
:103EA000FEF779FA08BD08B5FEF775FA08BD08B542
:103EB000FEF771FA08BD08B5FEF76DFA08BD08B542
:103EC000FEF769FA08BD08B5FEF765FA08BD08B542
:103ED000FEF761FA08BD08B5FEF75DFA08BD08B542
:103EE000FEF759FA08BD08B5FEF755FA08BD08B542
:103EF000FEF751FA08BD08B5FEF74DFA08BD08B542
:103F0000FEF749FA08BD08B5FEF745FA08BD08B541
:103F1000FEF741FA08BD08B5FEF73DFA08BD08B541
:103F2000FEF739FA08BD08B5FEF735FA08BD08B541
:103F3000FEF731FA08BD08B5FEF72DFA08BD08B541
:103F4000FEF729FA08BD08B5FEF725FA08BD08B541
:103F5000FEF721FA08BD08B5FEF71DFA08BD08B541
:103F6000FEF719FA08BD08B5FEF715FA08BD08B541
:103F7000FEF711FA08BD08B5FEF70DFA08BD08B541
:103F8000FEF709FA08BD08B5FEF705FA08BD08B541
:103F9000FEF701FA08BD08B5FEF7FDF908BD08B542
:103FA000FEF7F9F908BD08B5FEF7F5F908BD08B543
:103FB000FEF7F1F908BD08B5FEF7EDF908BD08B543
:103FC000FEF7E9F908BD08B5FEF7E5F908BD08B543
:103FD000FEF7E1F908BD08B5FEF7DDF908BD08B543
:103FE000FEF7D9F908BD08B5FEF7D5F908BD0420DC
:103FF0007146084202D0EFF3098001E0EFF3088038
:1040000081690A884BF6AB639A4200D0FEE7023121
:104010008161202101607047012303FA01F10368E7
:104020001AB923EA0101016070471943FBE710B593
:104030000124C3690F2902F1FF3204FA01F488BF99
:10404000103923EA0403C36194BF00F10C0300F1AB
:104050001003042A0CD8DFE802F0030C1820270014
:10406000490003201A6800FA01F122EA01021A60ED
:1040700010BD490003201A68884022EA000201208E
:1040800000FA01F111431960F2E7490003201A68B0
:10409000884022EA00020220F2E749000322186861
:1040A00002FA01F10143EEE7C3691C43C461DFE793
:1040B00010B514220021044600F084F800234FF4C8
:1040C000E132C4E90233C4E90023238210BD0A446B
:1040D000914200D1704743691B02FCD511F8013BA6
:1040E000C361F5E7704738B50D461022002104463C
:1040F00000F068F82B7A012B237306D1E96804F1EC
:104100000800BDE8384000F02CB843F2215038BD1B
:1041100038B50D46044604220021284600F052F826
:1041200063680020013363602C6038BD70B504689B
:1041300006460D4644B904222146284600F042F8BE
:10414000204635602E6070BD43F22250FBE70068C8
:10415000037B012B02D1083000F01FB843F221503D
:1041600070471FB5CA7A4B688DF80A200A7B8DF814
:104170000B200A68CDE900230B89ADF808308B7A53
:1041800069468DF80C30FEF759FF002843F22150A4
:1041900008BF002005B05DF804FBFEF787BF10B52F
:1041A000FEF790FF012203464FF4E1311046BDE8CF
:1041B0001040FEF713B908B5FFF72CFBBDE8084027
:1041C000FEF780BA00F0CCB9A8B14FF0805340F8A8
:1041D0000C3C50F8042C72B11368B3F1805F0AD123
:1041E00050F8083C516803330B4440F8083C93688E
:1041F00040F8043CEDE77047421C10B583070446C5
:1042000016D1234654F8041BA1F1013020EA010025
:1042100010F0803FF5D011F0FF0F11D011F47F4F57
:104220000CD011F47F0F14BF23460333981A04E017
:1042300010F8013B002BE1D1801A10BD0233F5E7E5
:104240000133F3E770B50D4606461046144600F0FC
:104250002DF82B78722B17D0772B18D0612B23D108
:10426000082348F2020215F8011F2B2912D06229F7
:1042700015D01B07E260666104D5022200212046AA
:10428000FFF746FB204670BD00230122EBE7042325
:104290000222E8E742F0030243F00203E3E742F0C0
:1042A000040243F00103DEE70024EBE7F0B5C46845
:1042B00089B00546A10722D0220718D4D0E90467A7
:1042C000FFF704FB384600F064F9230502D53046B9
:1042D000FFF77AFFA40DA40514F1A54F07D1202202
:1042E000296A684600F064F9684600F00BF83C2241
:1042F00000212846FFF766FF002009B0F0BD4FF00F
:10430000FF30FAE710B50446FFF776FF0146204676
:10431000BDE8104000F046B9C36870B513F003065D
:10432000044611D09B0611D5856A00F03EF8E3687B
:10433000204623F44053E36000F00EF800220646C6
:1043400029462046FFF7E4FA304670BD83690568C8
:104350001D440369ED1AEAE738B5016804460569AA
:10436000C36AC06820F40022E26000F08202022AE0
:1043700002D04FF0FF3038BD10F48030FBD09942AE
:1043800038BF19468D4208D1E3680020E56223F466
:1043900080332560A060E360EDE72246491B284694
:1043A000FFF75AFB0028EFD0E3E7C368826923F0E8
:1043B000200310B5C3600446836A9A420ED0FFF70B
:1043C000CBFFE36823F4405323F0100343F01003C2
:1043D000E360A36AA3612369E3622360E36823F4D3
:1043E000804323F04003E36010BD5FF0000C30B564
:1043F0001C0022D112006FD0914206D30546084618
:10440000002100F06FF80446284600F06BF80A46D9
:104410002146BDE830401CF0404F08BF704703D52F
:104420004942404261F100015FEA8C0C38BF70479D
:104430005B42524263F10003704742D41C0C04BF3C
:104440001B040CF1100C13F07F4F04BF1B020CF186
:10445000080C13F0704F04BF1B010CF1040C13F097
:10446000404F04BF0CF1020C5FEA83035CBF0CF108
:10447000010C5B00CCF1200E22FA0EF4234302FA69
:104480000CF200FA0CF520FA0EF001FA0CF42043BD
:1044900021FA0EF114461A4600F024F8A4FB00237A
:1044A000AA1A71EB03033CBF1B190138CCF1200E93
:1044B00022FA0CF203FA0EF4224323FA0CF3002141
:1044C000A7E7821A71EB03033CBF02460B464FF08D
:1044D000000141F100009CE700200021BDE83040D0
:1044E00000F03DB80423B1EB122F09D2090241EAD2
:1044F00010610002013B08BF7047B1EB122FF5D3EA
:104500000018494134BF9142891A4041494134BFA2
:104510009142891A4041494134BF9142891A404130
:10452000494134BF9142891A4041494134BF9142C7
:10453000891A4041494134BF9142891A4041494159
:1045400034BF9142891A4041494134BF9142891A8E
:104550004041A3F1010313F00F0FD2D17047704710
:10456000034613F0030F0ED101F0FF0141EA0121D0
:1045700041EA0141043A24BF43F8041BB2F10402AA
:10458000F9D202F10402013A24BF03F8011BFAE751
:1045900070474FF0FF3070474FF0FF3070474FF0DB
:1045A000FF3070474FF0FF3070474FF0FF307047DB
:1045B0004FF0FF30704710467047FFFF40787D0195
:1045C00080F0FA0200E1F505405973070000000091
:1045D00000801B4000C01B4000001C4000401C40ED
:1045E00000000C40000000420040004200800042F9
:1045F00000C0004200000000004018400080184049
:1046000000C01840000019400040194000801940C7
:1046100000C0194000001A4000000000004018408F
:104620000080184000C018400000194000401940A8
:104630000080194000C0194000001A4064000000CA
:104640000000000001000000000000000100000068
:10465000000000000000000003000000FFFF1A013E
:104660001E001A020C031E01FFFF18051C000C009F
:104670001801020306031A050E0668656C6C6F20AC
:10468000776F726C642E0D0A00300D0A00310D0A2E
:08469000000101007200770037
:0446980000A4781FE3
:040000056000100087
:00000001FF
